

Microchip MPLAB XC8 Assembler V2.10 build 88905656 
                                                                                               Tue Mar 03 16:36:01 2020

Microchip MPLAB XC8 C Compiler v2.10 (Free license) build 20190730164152 Og1 
     1                           	processor	18F46K22
     2                           	fnconf	rparam,??,?,0
     3                           	opt	pw 120
     4                           	opt	flic
     5                           	psect	smallconst,global,reloc=2,class=SMALLCONST,delta=1,noexec
     6                           	psect	cinit,global,reloc=2,class=CODE,delta=1
     7                           	psect	bssCOMRAM,global,class=COMRAM,space=1,delta=1,noexec
     8                           	psect	bssBANK1,global,class=BANK1,space=1,delta=1,lowdata,noexec
     9                           	psect	cstackCOMRAM,global,class=COMRAM,space=1,delta=1,noexec
    10                           	psect	text0,global,reloc=2,class=CODE,delta=1
    11                           	psect	text1,global,reloc=2,class=CODE,delta=1
    12                           	psect	text2,global,reloc=2,class=CODE,delta=1
    13                           	psect	text3,global,reloc=2,class=CODE,delta=1
    14                           	psect	text4,global,reloc=2,class=CODE,delta=1,group=1
    15                           	psect	text5,global,reloc=2,class=CODE,delta=1
    16                           	psect	text6,global,reloc=2,class=CODE,delta=1
    17                           	psect	text7,global,reloc=2,class=CODE,delta=1
    18                           	psect	text8,global,reloc=2,class=CODE,delta=1
    19                           	psect	text9,global,reloc=2,class=CODE,delta=1
    20                           	psect	text10,global,reloc=2,class=CODE,delta=1
    21                           	psect	text11,global,reloc=2,class=CODE,delta=1
    22                           	psect	intcode,global,reloc=2,class=CODE,delta=1
    23                           	psect	text13,global,reloc=2,class=CODE,delta=1
    24                           	psect	text14,global,reloc=2,class=CODE,delta=1
    25                           	psect	text15,global,reloc=2,class=CODE,delta=1,group=2
    26                           	psect	text16,global,reloc=2,class=CODE,delta=1,group=2
    27                           	psect	text17,global,reloc=2,class=CODE,delta=1,group=2
    28                           	psect	text18,global,reloc=2,class=CODE,delta=1,group=2
    29                           	psect	text19,global,reloc=2,class=CODE,delta=1
    30                           	psect	text20,global,reloc=2,class=CODE,delta=1
    31                           	psect	text21,global,reloc=2,class=CODE,delta=1
    32                           	psect	text22,global,reloc=2,class=CODE,delta=1
    33                           	psect	text23,global,reloc=2,class=CODE,delta=1
    34                           	psect	text24,global,reloc=2,class=CODE,delta=1
    35                           	psect	intsave_regs,global,class=BIGRAM,space=1,delta=1,noexec
    36                           	psect	text25,global,reloc=2,class=CODE,delta=1
    37                           	psect	rparam,global,class=COMRAM,space=1,delta=1,noexec
    38                           	psect	temp,global,ovrld,common,class=COMRAM,space=1,delta=1
    39  0000                     
    40                           ; Version 2.10
    41                           ; Generated 31/07/2019 GMT
    42                           ; 
    43                           ; Copyright © 2019, Microchip Technology Inc. and its subsidiaries ("Microchip")
    44                           ; All rights reserved.
    45                           ; 
    46                           ; This software is developed by Microchip Technology Inc. and its subsidiaries ("Microch
      +                          ip").
    47                           ; 
    48                           ; Redistribution and use in source and binary forms, with or without modification, are
    49                           ; permitted provided that the following conditions are met:
    50                           ; 
    51                           ;     1. Redistributions of source code must retain the above copyright notice, this lis
      +                          t of
    52                           ;        conditions and the following disclaimer.
    53                           ; 
    54                           ;     2. Redistributions in binary form must reproduce the above copyright notice, this 
      +                          list
    55                           ;        of conditions and the following disclaimer in the documentation and/or other
    56                           ;        materials provided with the distribution.
    57                           ; 
    58                           ;     3. Microchip's name may not be used to endorse or promote products derived from th
      +                          is
    59                           ;        software without specific prior written permission.
    60                           ; 
    61                           ; THIS SOFTWARE IS PROVIDED BY MICROCHIP "AS IS" AND ANY EXPRESS OR IMPLIED WARRANTIES,
    62                           ; INCLUDING, BUT NOT LIMITED TO, THE IMPLIED WARRANTIES OF MERCHANTABILITY AND FITNESS F
      +                          OR
    63                           ; PURPOSE ARE DISCLAIMED.  IN NO EVENT SHALL MICROCHIP BE LIABLE FOR ANY DIRECT, INDIREC
      +                          T,
    64                           ; INCIDENTAL, SPECIAL, EXEMPLARY, OR CONSEQUENTIAL DAMAGES (INCLUDING BUT NOT LIMITED TO
    65                           ; PROCUREMENT OF SUBSTITUTE GOODS OR SERVICES; LOSS OF USE, DATA OR PROFITS; OR BUSINESS
    66                           ; INTERRUPTION) HOWSOEVER CAUSED AND ON ANY THEORY OF LIABILITY, WHETHER IN CONTRACT, ST
      +                          RICT
    67                           ; LIABILITY, OR TORT (INCLUDING NEGLIGENCE OR OTHERWISE) ARISING IN ANY WAY OUT OF THE U
      +                          SE OF
    68                           ; THIS SOFTWARE, EVEN IF ADVISED OF THE POSSIBILITY OF SUCH DAMAGE.
    69                           ; 
    70                           ; 
    71                           ; Code-generator required, PIC18F46K22 Definitions
    72                           ; 
    73                           ; SFR Addresses
    74  0000                     _ANSELCbits	set	3898
    75  0000                     _LATD	set	3980
    76  0000                     _PORTD	set	3971
    77  0000                     _LATDbits	set	3980
    78  0000                     _TRISDbits	set	3989
    79  0000                     _PIR1bits	set	3998
    80  0000                     _RCREG1	set	4014
    81  0000                     _TXREG1	set	4013
    82  0000                     _SPBRGH1	set	4016
    83  0000                     _SPBRG1	set	4015
    84  0000                     _BAUDCON1bits	set	4024
    85  0000                     _PIE1bits	set	3997
    86  0000                     _RCSTA1bits	set	4011
    87  0000                     _TXSTA1bits	set	4012
    88  0000                     _RCSTA1	set	4011
    89  0000                     _TXSTA1	set	4012
    90  0000                     _TRISCbits	set	3988
    91  0000                     _PEIE	set	32662
    92  0000                     _RCIE	set	31981
    93  0000                     _RCIP	set	31997
    94  0000                     _RCIF	set	31989
    95                           
    96                           	psect	smallconst
    97  001000                     __psmallconst:
    98                           	opt callstack 0
    99  001000  00                 	db	0
   100  001001  30                 	db	48	;'0'
   101  001002  31                 	db	49	;'1'
   102  001003  32                 	db	50	;'2'
   103  001004  33                 	db	51	;'3'
   104  001005  34                 	db	52	;'4'
   105  001006  35                 	db	53	;'5'
   106  001007  36                 	db	54	;'6'
   107  001008  37                 	db	55	;'7'
   108  001009  38                 	db	56	;'8'
   109  00100A  39                 	db	57	;'9'
   110  00100B  41                 	db	65	;'A'
   111  00100C  42                 	db	66	;'B'
   112  00100D  43                 	db	67	;'C'
   113  00100E  44                 	db	68	;'D'
   114  00100F  45                 	db	69	;'E'
   115  001010  46                 	db	70	;'F'
   116  001011  00                 	db	0
   117  001012                     STR_1:
   118  001012  46                 	db	70	;'F'
   119  001013  72                 	db	114	;'r'
   120  001014  61                 	db	97	;'a'
   121  001015  6D                 	db	109	;'m'
   122  001016  69                 	db	105	;'i'
   123  001017  6E                 	db	110	;'n'
   124  001018  67                 	db	103	;'g'
   125  001019  20                 	db	32
   126  00101A  45                 	db	69	;'E'
   127  00101B  72                 	db	114	;'r'
   128  00101C  72                 	db	114	;'r'
   129  00101D  6F                 	db	111	;'o'
   130  00101E  72                 	db	114	;'r'
   131  00101F  00                 	db	0
   132  001020                     STR_2:
   133  001020  4F                 	db	79	;'O'
   134  001021  76                 	db	118	;'v'
   135  001022  65                 	db	101	;'e'
   136  001023  72                 	db	114	;'r'
   137  001024  72                 	db	114	;'r'
   138  001025  75                 	db	117	;'u'
   139  001026  6E                 	db	110	;'n'
   140  001027  20                 	db	32
   141  001028  45                 	db	69	;'E'
   142  001029  72                 	db	114	;'r'
   143  00102A  72                 	db	114	;'r'
   144  00102B  6F                 	db	111	;'o'
   145  00102C  72                 	db	114	;'r'
   146  00102D  00                 	db	0
   147                           
   148                           ; #config settings
   149  00102E  00                 	db	0	; dummy byte at the end
   150  0000                     
   151                           	psect	cinit
   152  00159E                     __pcinit:
   153                           	opt callstack 0
   154  00159E                     start_initialization:
   155                           	opt callstack 0
   156  00159E                     __initialization:
   157                           	opt callstack 0
   158                           
   159                           ; Clear objects allocated to BANK1 (130 bytes)
   160  00159E  EE01  F000         	lfsr	0,__pbssBANK1
   161  0015A2  0E82               	movlw	130
   162  0015A4                     clear_0:
   163  0015A4  6AEE               	clrf	postinc0,c
   164  0015A6  06E8               	decf	wreg,f,c
   165  0015A8  E1FD               	bnz	clear_0
   166                           
   167                           ; Clear objects allocated to COMRAM (4 bytes)
   168  0015AA  6A2F               	clrf	(__pbssCOMRAM+3)& (0+255),c
   169  0015AC  6A2E               	clrf	(__pbssCOMRAM+2)& (0+255),c
   170  0015AE  6A2D               	clrf	(__pbssCOMRAM+1)& (0+255),c
   171  0015B0  6A2C               	clrf	__pbssCOMRAM& (0+255),c
   172  0015B2                     end_of_initialization:
   173                           	opt callstack 0
   174  0015B2                     __end_of__initialization:
   175                           	opt callstack 0
   176  0015B2  9030               	bcf	int$flags,0,c	;clear compiler interrupt flag (level 1)
   177  0015B4  9230               	bcf	int$flags,1,c	;clear compiler interrupt flag (level 2)
   178  0015B6  0100               	movlb	0
   179  0015B8  EF2B  F00A         	goto	_main	;jump to C main() function
   180                           
   181                           	psect	bssCOMRAM
   182  00002C                     __pbssCOMRAM:
   183                           	opt callstack 0
   184  00002C                     _slot:
   185                           	opt callstack 0
   186  00002C                     	ds	2
   187  00002E                     _head:
   188                           	opt callstack 0
   189  00002E                     	ds	2
   190                           
   191                           	psect	bssBANK1
   192  000100                     __pbssBANK1:
   193                           	opt callstack 0
   194  000100                     _builtin:
   195                           	opt callstack 0
   196  000100                     	ds	130
   197                           
   198                           	psect	cstackCOMRAM
   199  000001                     __pcstackCOMRAM:
   200                           	opt callstack 0
   201  000001                     i2ReadByte@status:
   202                           	opt callstack 0
   203  000001                     i2WriteNibble@data:
   204                           	opt callstack 0
   205  000001                     __Exit@ec:
   206                           	opt callstack 0
   207  000001                     call@p:
   208                           	opt callstack 0
   209                           
   210                           ; 2 bytes @ 0x0
   211  000001                     	ds	1
   212  000002                     ??i2_WriteNibble:
   213  000002                     i2WaitLCD@status:
   214                           	opt callstack 0
   215                           
   216                           ; 1 bytes @ 0x1
   217  000002                     	ds	1
   218  000003                     ??___funcs_on_exit:
   219  000003                     i2WriteNibble@cmd:
   220                           	opt callstack 0
   221                           
   222                           ; 1 bytes @ 0x2
   223  000003                     	ds	1
   224  000004                     i2WriteByte@data:
   225                           	opt callstack 0
   226                           
   227                           ; 1 bytes @ 0x3
   228  000004                     	ds	1
   229  000005                     i2WriteByte@cmd:
   230                           	opt callstack 0
   231                           
   232                           ; 1 bytes @ 0x4
   233  000005                     	ds	1
   234  000006                     i2LCDGoto@row:
   235                           	opt callstack 0
   236  000006                     i2LCDPutChar@data:
   237                           	opt callstack 0
   238                           
   239                           ; 1 bytes @ 0x5
   240  000006                     	ds	1
   241  000007                     ??i2_LCDGoto:
   242  000007                     LCDWriteStr@string:
   243                           	opt callstack 0
   244  000007                     ___funcs_on_exit@func:
   245                           	opt callstack 0
   246                           
   247                           ; 2 bytes @ 0x6
   248  000007                     	ds	2
   249  000009                     ??_LCDWriteStr:
   250  000009                     i2LCDGoto@column:
   251                           	opt callstack 0
   252  000009                     ___funcs_on_exit@arg:
   253                           	opt callstack 0
   254                           
   255                           ; 2 bytes @ 0x8
   256  000009                     	ds	1
   257  00000A                     i2_LCDGoto$586:
   258                           	opt callstack 0
   259                           
   260                           ; 2 bytes @ 0x9
   261  00000A                     	ds	1
   262  00000B                     LCDWriteStr@i:
   263                           	opt callstack 0
   264  00000B                     exit@code:
   265                           	opt callstack 0
   266                           
   267                           ; 2 bytes @ 0xA
   268  00000B                     	ds	2
   269  00000D                     ??_SerialRxPinInterrupt:
   270                           
   271                           ; 1 bytes @ 0xC
   272  00000D                     	ds	10
   273  000017                     ?___lldiv:
   274                           	opt callstack 0
   275  000017                     UARTWriteByte@data:
   276                           	opt callstack 0
   277  000017                     ReadByte@status:
   278                           	opt callstack 0
   279  000017                     WriteNibble@data:
   280                           	opt callstack 0
   281  000017                     ___lldiv@dividend:
   282                           	opt callstack 0
   283                           
   284                           ; 4 bytes @ 0x16
   285  000017                     	ds	1
   286  000018                     ??_WriteNibble:
   287  000018                     WaitLCD@status:
   288                           	opt callstack 0
   289                           
   290                           ; 1 bytes @ 0x17
   291  000018                     	ds	1
   292  000019                     WriteNibble@cmd:
   293                           	opt callstack 0
   294                           
   295                           ; 1 bytes @ 0x18
   296  000019                     	ds	1
   297  00001A                     ??_LCDInit:
   298  00001A                     WriteByte@data:
   299                           	opt callstack 0
   300                           
   301                           ; 1 bytes @ 0x19
   302  00001A                     	ds	1
   303  00001B                     WriteByte@cmd:
   304                           	opt callstack 0
   305  00001B                     ___lldiv@divisor:
   306                           	opt callstack 0
   307                           
   308                           ; 4 bytes @ 0x1A
   309  00001B                     	ds	1
   310  00001C                     LCDGoto@row:
   311                           	opt callstack 0
   312  00001C                     LCDPutChar@data:
   313                           	opt callstack 0
   314                           
   315                           ; 1 bytes @ 0x1B
   316  00001C                     	ds	1
   317  00001D                     ??_LCDGoto:
   318                           
   319                           ; 1 bytes @ 0x1C
   320  00001D                     	ds	2
   321  00001F                     _LCDGoto$586:
   322                           	opt callstack 0
   323  00001F                     ___lldiv@quotient:
   324                           	opt callstack 0
   325                           
   326                           ; 4 bytes @ 0x1E
   327  00001F                     	ds	2
   328  000021                     LCDGoto@column:
   329                           	opt callstack 0
   330                           
   331                           ; 1 bytes @ 0x20
   332  000021                     	ds	2
   333  000023                     ___lldiv@counter:
   334                           	opt callstack 0
   335                           
   336                           ; 1 bytes @ 0x22
   337  000023                     	ds	1
   338  000024                     UARTInit@baudRate:
   339                           	opt callstack 0
   340                           
   341                           ; 2 bytes @ 0x23
   342  000024                     	ds	2
   343  000026                     ??_UARTInit:
   344                           
   345                           ; 1 bytes @ 0x25
   346  000026                     	ds	2
   347  000028                     ??_main:
   348                           
   349                           ; 1 bytes @ 0x27
   350  000028                     	ds	2
   351  00002A                     main@tmp:
   352                           	opt callstack 0
   353                           
   354                           ; 1 bytes @ 0x29
   355  00002A                     	ds	1
   356  00002B                     main@test:
   357                           	opt callstack 0
   358                           
   359                           ; 1 bytes @ 0x2A
   360  00002B                     	ds	1
   361                           
   362 ;;
   363 ;;Main: autosize = 0, tempsize = 2, incstack = 0, save=0
   364 ;;
   365 ;; *************** function _main *****************
   366 ;; Defined at:
   367 ;;		line 80 in file "main.c"
   368 ;; Parameters:    Size  Location     Type
   369 ;;		None
   370 ;; Auto vars:     Size  Location     Type
   371 ;;  tmp             1   41[COMRAM] unsigned char 
   372 ;;  test            1   42[COMRAM] unsigned char 
   373 ;; Return value:  Size  Location     Type
   374 ;;                  1    wreg      void 
   375 ;; Registers used:
   376 ;;		wreg, status,2, status,0, cstack
   377 ;; Tracked objects:
   378 ;;		On entry : 0/0
   379 ;;		On exit  : 0/0
   380 ;;		Unchanged: 0/0
   381 ;; Data sizes:     COMRAM   BANK0   BANK1   BANK2   BANK3   BANK4   BANK5   BANK6   BANK7   BANK8   BANK9  BANK10  BANK1
      +1  BANK12  BANK13  BANK14  BANK15
   382 ;;      Params:         0       0       0       0       0       0       0       0       0       0       0       0       
      +0       0       0       0       0
   383 ;;      Locals:         2       0       0       0       0       0       0       0       0       0       0       0       
      +0       0       0       0       0
   384 ;;      Temps:          2       0       0       0       0       0       0       0       0       0       0       0       
      +0       0       0       0       0
   385 ;;      Totals:         4       0       0       0       0       0       0       0       0       0       0       0       
      +0       0       0       0       0
   386 ;;Total ram usage:        4 bytes
   387 ;; Hardware stack levels required when called:    8
   388 ;; This function calls:
   389 ;;		_LCDGoto
   390 ;;		_LCDInit
   391 ;;		_LCDPutChar
   392 ;;		_UARTInit
   393 ;;		_UARTReadByte
   394 ;;		_UARTWriteByte
   395 ;; This function is called by:
   396 ;;		Startup code after reset
   397 ;; This function uses a non-reentrant model
   398 ;;
   399                           
   400                           	psect	text0
   401  001456                     __ptext0:
   402                           	opt callstack 0
   403  001456                     _main:
   404                           	opt callstack 23
   405  001456                     
   406                           ;main.c: 93:     LCDInit();
   407  001456  EC18  F008         	call	_LCDInit	;wreg free
   408                           
   409                           ;main.c: 94:     LCDGoto(0, 0);
   410  00145A  0E00               	movlw	0
   411  00145C  6E1C               	movwf	LCDGoto@row^0,c
   412  00145E  0E00               	movlw	0
   413  001460  ECC1  F009         	call	_LCDGoto
   414                           
   415                           ;main.c: 95:     UARTInit(9600);
   416  001464  0E25               	movlw	37
   417  001466  6E25               	movwf	(UARTInit@baudRate+1)^0,c
   418  001468  0E80               	movlw	128
   419  00146A  6E24               	movwf	UARTInit@baudRate^0,c
   420  00146C  EC8B  F009         	call	_UARTInit	;wreg free
   421  001470                     
   422                           ;main.c: 97:     unsigned char test = 'a';
   423  001470  0E61               	movlw	97
   424  001472  6E2B               	movwf	main@test^0,c
   425  001474                     l1519:
   426                           
   427                           ;main.c: 100:     UARTWriteByte(test);
   428  001474  502B               	movf	main@test^0,w,c
   429  001476  EC14  F00B         	call	_UARTWriteByte
   430  00147A                     
   431                           ;main.c: 101:     unsigned char tmp = UARTReadByte();
   432  00147A  EC3D  F00B         	call	_UARTReadByte	;wreg free
   433  00147E  6E2A               	movwf	main@tmp^0,c
   434  001480                     
   435                           ;main.c: 103:     LCDPutChar(tmp);
   436  001480  502A               	movf	main@tmp^0,w,c
   437  001482  EC1F  F00B         	call	_LCDPutChar
   438  001486                     
   439                           ;main.c: 105:     _delay((unsigned long)((1000)*(1000000UL/4000.0)));
   440  001486  0E02               	movlw	2
   441  001488  6E29               	movwf	(??_main+1)^0,c
   442  00148A  0E45               	movlw	69
   443  00148C  6E28               	movwf	??_main^0,c
   444  00148E  0EAA               	movlw	170
   445  001490                     u527:
   446  001490  2EE8               	decfsz	wreg,f,c
   447  001492  D7FE               	bra	u527
   448  001494  2E28               	decfsz	??_main^0,f,c
   449  001496  D7FC               	bra	u527
   450  001498  2E29               	decfsz	(??_main+1)^0,f,c
   451  00149A  D7FA               	bra	u527
   452  00149C                     
   453                           ;main.c: 106:     test++;
   454  00149C  2A2B               	incf	main@test^0,f,c
   455  00149E  EF3A  F00A         	goto	l1519
   456  0014A2  EF68  F000         	goto	start
   457  0014A6                     __end_of_main:
   458                           	opt callstack 0
   459                           
   460 ;; *************** function _UARTWriteByte *****************
   461 ;; Defined at:
   462 ;;		line 53 in file "uart.c"
   463 ;; Parameters:    Size  Location     Type
   464 ;;  data            1    wreg     unsigned char 
   465 ;; Auto vars:     Size  Location     Type
   466 ;;  data            1   22[COMRAM] unsigned char 
   467 ;; Return value:  Size  Location     Type
   468 ;;                  1    wreg      void 
   469 ;; Registers used:
   470 ;;		wreg
   471 ;; Tracked objects:
   472 ;;		On entry : 0/0
   473 ;;		On exit  : 0/0
   474 ;;		Unchanged: 0/0
   475 ;; Data sizes:     COMRAM   BANK0   BANK1   BANK2   BANK3   BANK4   BANK5   BANK6   BANK7   BANK8   BANK9  BANK10  BANK1
      +1  BANK12  BANK13  BANK14  BANK15
   476 ;;      Params:         0       0       0       0       0       0       0       0       0       0       0       0       
      +0       0       0       0       0
   477 ;;      Locals:         1       0       0       0       0       0       0       0       0       0       0       0       
      +0       0       0       0       0
   478 ;;      Temps:          0       0       0       0       0       0       0       0       0       0       0       0       
      +0       0       0       0       0
   479 ;;      Totals:         1       0       0       0       0       0       0       0       0       0       0       0       
      +0       0       0       0       0
   480 ;;Total ram usage:        1 bytes
   481 ;; Hardware stack levels used:    1
   482 ;; Hardware stack levels required when called:    5
   483 ;; This function calls:
   484 ;;		Nothing
   485 ;; This function is called by:
   486 ;;		_main
   487 ;; This function uses a non-reentrant model
   488 ;;
   489                           
   490                           	psect	text1
   491  001628                     __ptext1:
   492                           	opt callstack 0
   493  001628                     _UARTWriteByte:
   494                           	opt callstack 25
   495                           
   496                           ;incstack = 0
   497                           ;UARTWriteByte@data stored from wreg
   498  001628  6E17               	movwf	UARTWriteByte@data^0,c
   499  00162A                     l48:
   500  00162A  A2AC               	btfss	172,1,c	;volatile
   501  00162C  EF1A  F00B         	goto	u131
   502  001630  EF1C  F00B         	goto	u130
   503  001634                     u131:
   504  001634  EF15  F00B         	goto	l48
   505  001638                     u130:
   506  001638                     
   507                           ;uart.c: 57:     TXREG1 = data;
   508  001638  C017  FFAD         	movff	UARTWriteByte@data,4013	;volatile
   509  00163C  0012               	return		;funcret
   510  00163E                     __end_of_UARTWriteByte:
   511                           	opt callstack 0
   512                           
   513 ;; *************** function _UARTReadByte *****************
   514 ;; Defined at:
   515 ;;		line 60 in file "uart.c"
   516 ;; Parameters:    Size  Location     Type
   517 ;;		None
   518 ;; Auto vars:     Size  Location     Type
   519 ;;		None
   520 ;; Return value:  Size  Location     Type
   521 ;;                  1    wreg      unsigned char 
   522 ;; Registers used:
   523 ;;		wreg, status,2
   524 ;; Tracked objects:
   525 ;;		On entry : 0/0
   526 ;;		On exit  : 0/0
   527 ;;		Unchanged: 0/0
   528 ;; Data sizes:     COMRAM   BANK0   BANK1   BANK2   BANK3   BANK4   BANK5   BANK6   BANK7   BANK8   BANK9  BANK10  BANK1
      +1  BANK12  BANK13  BANK14  BANK15
   529 ;;      Params:         0       0       0       0       0       0       0       0       0       0       0       0       
      +0       0       0       0       0
   530 ;;      Locals:         0       0       0       0       0       0       0       0       0       0       0       0       
      +0       0       0       0       0
   531 ;;      Temps:          0       0       0       0       0       0       0       0       0       0       0       0       
      +0       0       0       0       0
   532 ;;      Totals:         0       0       0       0       0       0       0       0       0       0       0       0       
      +0       0       0       0       0
   533 ;;Total ram usage:        0 bytes
   534 ;; Hardware stack levels used:    1
   535 ;; Hardware stack levels required when called:    5
   536 ;; This function calls:
   537 ;;		Nothing
   538 ;; This function is called by:
   539 ;;		_main
   540 ;; This function uses a non-reentrant model
   541 ;;
   542                           
   543                           	psect	text2
   544  00167A                     __ptext2:
   545                           	opt callstack 0
   546  00167A                     _UARTReadByte:
   547                           	opt callstack 25
   548  00167A                     
   549                           ;uart.c: 62:     return(RCREG1);
   550  00167A  50AE               	movf	174,w,c	;volatile
   551  00167C  0012               	return		;funcret
   552  00167E                     __end_of_UARTReadByte:
   553                           	opt callstack 0
   554                           
   555 ;; *************** function _UARTInit *****************
   556 ;; Defined at:
   557 ;;		line 20 in file "uart.c"
   558 ;; Parameters:    Size  Location     Type
   559 ;;  baudRate        2   35[COMRAM] unsigned int 
   560 ;; Auto vars:     Size  Location     Type
   561 ;;		None
   562 ;; Return value:  Size  Location     Type
   563 ;;                  1    wreg      void 
   564 ;; Registers used:
   565 ;;		wreg, status,2, status,0, cstack
   566 ;; Tracked objects:
   567 ;;		On entry : 0/0
   568 ;;		On exit  : 0/0
   569 ;;		Unchanged: 0/0
   570 ;; Data sizes:     COMRAM   BANK0   BANK1   BANK2   BANK3   BANK4   BANK5   BANK6   BANK7   BANK8   BANK9  BANK10  BANK1
      +1  BANK12  BANK13  BANK14  BANK15
   571 ;;      Params:         2       0       0       0       0       0       0       0       0       0       0       0       
      +0       0       0       0       0
   572 ;;      Locals:         0       0       0       0       0       0       0       0       0       0       0       0       
      +0       0       0       0       0
   573 ;;      Temps:          2       0       0       0       0       0       0       0       0       0       0       0       
      +0       0       0       0       0
   574 ;;      Totals:         4       0       0       0       0       0       0       0       0       0       0       0       
      +0       0       0       0       0
   575 ;;Total ram usage:        4 bytes
   576 ;; Hardware stack levels used:    1
   577 ;; Hardware stack levels required when called:    6
   578 ;; This function calls:
   579 ;;		___lldiv
   580 ;; This function is called by:
   581 ;;		_main
   582 ;; This function uses a non-reentrant model
   583 ;;
   584                           
   585                           	psect	text3
   586  001316                     __ptext3:
   587                           	opt callstack 0
   588  001316                     _UARTInit:
   589                           	opt callstack 24
   590  001316                     
   591                           ;uart.c: 22:     TRISCbits.TRISC6 = 1;
   592  001316  8C94               	bsf	148,6,c	;volatile
   593                           
   594                           ;uart.c: 23:     TRISCbits.TRISC7 = 1;
   595  001318  8E94               	bsf	148,7,c	;volatile
   596                           
   597                           ;uart.c: 24:     ANSELCbits.ANSC7 = 0;
   598  00131A  010F               	movlb	15	; () banked
   599  00131C  9F3A               	bcf	58,7,b	;volatile
   600  00131E                     
   601                           ; BSR set to: 15
   602                           ;uart.c: 26:     TXSTA1 = 0;
   603  00131E  0E00               	movlw	0
   604  001320  6EAC               	movwf	172,c	;volatile
   605                           
   606                           ;uart.c: 27:     RCSTA1 = 0;
   607  001322  0E00               	movlw	0
   608  001324  6EAB               	movwf	171,c	;volatile
   609  001326                     
   610                           ; BSR set to: 15
   611                           ;uart.c: 29:     TXSTA1bits.SYNC = 0;
   612  001326  98AC               	bcf	172,4,c	;volatile
   613  001328                     
   614                           ; BSR set to: 15
   615                           ;uart.c: 30:     TXSTA1bits.TX9 = 0;
   616  001328  9CAC               	bcf	172,6,c	;volatile
   617  00132A                     
   618                           ; BSR set to: 15
   619                           ;uart.c: 31:     RCSTA1bits.RX9 = 0;
   620  00132A  9CAB               	bcf	171,6,c	;volatile
   621  00132C                     
   622                           ; BSR set to: 15
   623                           ;uart.c: 32:     RCSTA1bits.CREN = 1;
   624  00132C  88AB               	bsf	171,4,c	;volatile
   625  00132E                     
   626                           ; BSR set to: 15
   627                           ;uart.c: 33:     RCSTA1bits.ADDEN = 1;
   628  00132E  86AB               	bsf	171,3,c	;volatile
   629  001330                     
   630                           ; BSR set to: 15
   631                           ;uart.c: 34:     PIE1bits.RC1IE = 1;
   632  001330  8A9D               	bsf	157,5,c	;volatile
   633  001332                     
   634                           ; BSR set to: 15
   635                           ;uart.c: 35:     PIE1bits.TX1IE = 0;
   636  001332  989D               	bcf	157,4,c	;volatile
   637  001334                     
   638                           ; BSR set to: 15
   639                           ;uart.c: 37:     TXSTA1bits.BRGH = 1;
   640  001334  84AC               	bsf	172,2,c	;volatile
   641  001336                     
   642                           ; BSR set to: 15
   643                           ;uart.c: 38:     BAUDCON1bits.BRG16 = 1;
   644  001336  86B8               	bsf	184,3,c	;volatile
   645  001338                     
   646                           ; BSR set to: 15
   647                           ;uart.c: 39:     SPBRG1 = (UINT8_T)(((1000000UL / (4 * baudRate)) - 1));
   648  001338  0E40               	movlw	64
   649  00133A  6E17               	movwf	___lldiv@dividend^0,c
   650  00133C  0E42               	movlw	66
   651  00133E  6E18               	movwf	(___lldiv@dividend+1)^0,c
   652  001340  0E0F               	movlw	15
   653  001342  6E19               	movwf	(___lldiv@dividend+2)^0,c
   654  001344  0E00               	movlw	0
   655  001346  6E1A               	movwf	(___lldiv@dividend+3)^0,c
   656  001348  C024  F026         	movff	UARTInit@baudRate,??_UARTInit
   657  00134C  C025  F027         	movff	UARTInit@baudRate+1,??_UARTInit+1
   658  001350  90D8               	bcf	status,0,c
   659  001352  3626               	rlcf	??_UARTInit^0,f,c
   660  001354  3627               	rlcf	(??_UARTInit+1)^0,f,c
   661  001356  90D8               	bcf	status,0,c
   662  001358  3626               	rlcf	??_UARTInit^0,f,c
   663  00135A  3627               	rlcf	(??_UARTInit+1)^0,f,c
   664  00135C  C026  F01B         	movff	??_UARTInit,___lldiv@divisor
   665  001360  C027  F01C         	movff	??_UARTInit+1,___lldiv@divisor+1
   666  001364  6A1D               	clrf	(___lldiv@divisor+2)^0,c
   667  001366  6A1E               	clrf	(___lldiv@divisor+3)^0,c
   668  001368  ECFB  F008         	call	___lldiv	;wreg free
   669  00136C  0417               	decf	?___lldiv^0,w,c
   670  00136E  6EAF               	movwf	175,c	;volatile
   671  001370                     
   672                           ;uart.c: 40:     SPBRGH1 = 0;
   673  001370  0E00               	movlw	0
   674  001372  6EB0               	movwf	176,c	;volatile
   675  001374                     
   676                           ;uart.c: 44:     TXSTA1bits.TXEN = 1;
   677  001374  8AAC               	bsf	172,5,c	;volatile
   678  001376                     
   679                           ;uart.c: 45:     RCSTA1bits.SPEN = 1;
   680  001376  8EAB               	bsf	171,7,c	;volatile
   681  001378                     
   682                           ;uart.c: 47:     RCIF = 0;
   683  001378  9A9E               	bcf	3998,5,c	;volatile
   684  00137A                     
   685                           ;uart.c: 48:     RCIP = 0;
   686  00137A  9A9F               	bcf	3999,5,c	;volatile
   687  00137C                     
   688                           ;uart.c: 49:     RCIE = 1;
   689  00137C  8A9D               	bsf	3997,5,c	;volatile
   690  00137E                     
   691                           ;uart.c: 50:     PEIE = 1;
   692  00137E  8CF2               	bsf	4082,6,c	;volatile
   693  001380  0012               	return		;funcret
   694  001382                     __end_of_UARTInit:
   695                           	opt callstack 0
   696                           
   697 ;; *************** function ___lldiv *****************
   698 ;; Defined at:
   699 ;;		line 7 in file "C:\Program Files (x86)\Microchip\xc8\v2.10\pic\sources\c99\common\__lldiv.c"
   700 ;; Parameters:    Size  Location     Type
   701 ;;  dividend        4   22[COMRAM] unsigned long 
   702 ;;  divisor         4   26[COMRAM] unsigned long 
   703 ;; Auto vars:     Size  Location     Type
   704 ;;  quotient        4   30[COMRAM] unsigned long 
   705 ;;  counter         1   34[COMRAM] unsigned char 
   706 ;; Return value:  Size  Location     Type
   707 ;;                  4   22[COMRAM] unsigned long 
   708 ;; Registers used:
   709 ;;		wreg, status,2, status,0
   710 ;; Tracked objects:
   711 ;;		On entry : 0/0
   712 ;;		On exit  : 0/0
   713 ;;		Unchanged: 0/0
   714 ;; Data sizes:     COMRAM   BANK0   BANK1   BANK2   BANK3   BANK4   BANK5   BANK6   BANK7   BANK8   BANK9  BANK10  BANK1
      +1  BANK12  BANK13  BANK14  BANK15
   715 ;;      Params:         8       0       0       0       0       0       0       0       0       0       0       0       
      +0       0       0       0       0
   716 ;;      Locals:         5       0       0       0       0       0       0       0       0       0       0       0       
      +0       0       0       0       0
   717 ;;      Temps:          0       0       0       0       0       0       0       0       0       0       0       0       
      +0       0       0       0       0
   718 ;;      Totals:        13       0       0       0       0       0       0       0       0       0       0       0       
      +0       0       0       0       0
   719 ;;Total ram usage:       13 bytes
   720 ;; Hardware stack levels used:    1
   721 ;; Hardware stack levels required when called:    5
   722 ;; This function calls:
   723 ;;		Nothing
   724 ;; This function is called by:
   725 ;;		_UARTInit
   726 ;; This function uses a non-reentrant model
   727 ;;
   728                           
   729                           	psect	text4
   730  0011F6                     __ptext4:
   731                           	opt callstack 0
   732  0011F6                     ___lldiv:
   733                           	opt callstack 24
   734  0011F6  0E00               	movlw	0
   735  0011F8  6E1F               	movwf	___lldiv@quotient^0,c
   736  0011FA  0E00               	movlw	0
   737  0011FC  6E20               	movwf	(___lldiv@quotient+1)^0,c
   738  0011FE  0E00               	movlw	0
   739  001200  6E21               	movwf	(___lldiv@quotient+2)^0,c
   740  001202  0E00               	movlw	0
   741  001204  6E22               	movwf	(___lldiv@quotient+3)^0,c
   742  001206  501B               	movf	___lldiv@divisor^0,w,c
   743  001208  101C               	iorwf	(___lldiv@divisor+1)^0,w,c
   744  00120A  101D               	iorwf	(___lldiv@divisor+2)^0,w,c
   745  00120C  101E               	iorwf	(___lldiv@divisor+3)^0,w,c
   746  00120E  B4D8               	btfsc	status,2,c
   747  001210  EF0C  F009         	goto	u331
   748  001214  EF0E  F009         	goto	u330
   749  001218                     u331:
   750  001218  EF44  F009         	goto	l185
   751  00121C                     u330:
   752  00121C  0E01               	movlw	1
   753  00121E  6E23               	movwf	___lldiv@counter^0,c
   754  001220  EF18  F009         	goto	l1341
   755  001224                     l1339:
   756  001224  90D8               	bcf	status,0,c
   757  001226  361B               	rlcf	___lldiv@divisor^0,f,c
   758  001228  361C               	rlcf	(___lldiv@divisor+1)^0,f,c
   759  00122A  361D               	rlcf	(___lldiv@divisor+2)^0,f,c
   760  00122C  361E               	rlcf	(___lldiv@divisor+3)^0,f,c
   761  00122E  2A23               	incf	___lldiv@counter^0,f,c
   762  001230                     l1341:
   763  001230  AE1E               	btfss	(___lldiv@divisor+3)^0,7,c
   764  001232  EF1D  F009         	goto	u341
   765  001236  EF1F  F009         	goto	u340
   766  00123A                     u341:
   767  00123A  EF12  F009         	goto	l1339
   768  00123E                     u340:
   769  00123E                     l1343:
   770  00123E  90D8               	bcf	status,0,c
   771  001240  361F               	rlcf	___lldiv@quotient^0,f,c
   772  001242  3620               	rlcf	(___lldiv@quotient+1)^0,f,c
   773  001244  3621               	rlcf	(___lldiv@quotient+2)^0,f,c
   774  001246  3622               	rlcf	(___lldiv@quotient+3)^0,f,c
   775  001248  501B               	movf	___lldiv@divisor^0,w,c
   776  00124A  5C17               	subwf	___lldiv@dividend^0,w,c
   777  00124C  501C               	movf	(___lldiv@divisor+1)^0,w,c
   778  00124E  5818               	subwfb	(___lldiv@dividend+1)^0,w,c
   779  001250  501D               	movf	(___lldiv@divisor+2)^0,w,c
   780  001252  5819               	subwfb	(___lldiv@dividend+2)^0,w,c
   781  001254  501E               	movf	(___lldiv@divisor+3)^0,w,c
   782  001256  581A               	subwfb	(___lldiv@dividend+3)^0,w,c
   783  001258  A0D8               	btfss	status,0,c
   784  00125A  EF31  F009         	goto	u351
   785  00125E  EF33  F009         	goto	u350
   786  001262                     u351:
   787  001262  EF3C  F009         	goto	l1351
   788  001266                     u350:
   789  001266  501B               	movf	___lldiv@divisor^0,w,c
   790  001268  5E17               	subwf	___lldiv@dividend^0,f,c
   791  00126A  501C               	movf	(___lldiv@divisor+1)^0,w,c
   792  00126C  5A18               	subwfb	(___lldiv@dividend+1)^0,f,c
   793  00126E  501D               	movf	(___lldiv@divisor+2)^0,w,c
   794  001270  5A19               	subwfb	(___lldiv@dividend+2)^0,f,c
   795  001272  501E               	movf	(___lldiv@divisor+3)^0,w,c
   796  001274  5A1A               	subwfb	(___lldiv@dividend+3)^0,f,c
   797  001276  801F               	bsf	___lldiv@quotient^0,0,c
   798  001278                     l1351:
   799  001278  90D8               	bcf	status,0,c
   800  00127A  321E               	rrcf	(___lldiv@divisor+3)^0,f,c
   801  00127C  321D               	rrcf	(___lldiv@divisor+2)^0,f,c
   802  00127E  321C               	rrcf	(___lldiv@divisor+1)^0,f,c
   803  001280  321B               	rrcf	___lldiv@divisor^0,f,c
   804  001282  2E23               	decfsz	___lldiv@counter^0,f,c
   805  001284  EF1F  F009         	goto	l1343
   806  001288                     l185:
   807  001288  C01F  F017         	movff	___lldiv@quotient,?___lldiv
   808  00128C  C020  F018         	movff	___lldiv@quotient+1,?___lldiv+1
   809  001290  C021  F019         	movff	___lldiv@quotient+2,?___lldiv+2
   810  001294  C022  F01A         	movff	___lldiv@quotient+3,?___lldiv+3
   811  001298  0012               	return		;funcret
   812  00129A                     __end_of___lldiv:
   813                           	opt callstack 0
   814                           
   815 ;; *************** function _LCDPutChar *****************
   816 ;; Defined at:
   817 ;;		line 150 in file "lcd.c"
   818 ;; Parameters:    Size  Location     Type
   819 ;;  data            1    wreg     unsigned char 
   820 ;; Auto vars:     Size  Location     Type
   821 ;;  data            1   27[COMRAM] unsigned char 
   822 ;; Return value:  Size  Location     Type
   823 ;;                  1    wreg      void 
   824 ;; Registers used:
   825 ;;		wreg, status,2, status,0, cstack
   826 ;; Tracked objects:
   827 ;;		On entry : 0/0
   828 ;;		On exit  : 0/0
   829 ;;		Unchanged: 0/0
   830 ;; Data sizes:     COMRAM   BANK0   BANK1   BANK2   BANK3   BANK4   BANK5   BANK6   BANK7   BANK8   BANK9  BANK10  BANK1
      +1  BANK12  BANK13  BANK14  BANK15
   831 ;;      Params:         0       0       0       0       0       0       0       0       0       0       0       0       
      +0       0       0       0       0
   832 ;;      Locals:         1       0       0       0       0       0       0       0       0       0       0       0       
      +0       0       0       0       0
   833 ;;      Temps:          0       0       0       0       0       0       0       0       0       0       0       0       
      +0       0       0       0       0
   834 ;;      Totals:         1       0       0       0       0       0       0       0       0       0       0       0       
      +0       0       0       0       0
   835 ;;Total ram usage:        1 bytes
   836 ;; Hardware stack levels used:    1
   837 ;; Hardware stack levels required when called:    7
   838 ;; This function calls:
   839 ;;		_WaitLCD
   840 ;;		_WriteByte
   841 ;; This function is called by:
   842 ;;		_main
   843 ;;		_LCDPutByte
   844 ;; This function uses a non-reentrant model
   845 ;;
   846                           
   847                           	psect	text5
   848  00163E                     __ptext5:
   849                           	opt callstack 0
   850  00163E                     _LCDPutChar:
   851                           	opt callstack 23
   852                           
   853                           ;incstack = 0
   854                           ;LCDPutChar@data stored from wreg
   855  00163E  6E1C               	movwf	LCDPutChar@data^0,c
   856  001640                     
   857                           ;lcd.c: 150: void LCDPutChar(UINT8_T data);lcd.c: 151: {;lcd.c: 152:     WriteByte(0, da
      +                          ta);
   858  001640  C01C  F01A         	movff	LCDPutChar@data,WriteByte@data
   859  001644  0E00               	movlw	0
   860  001646  ECFA  F00A         	call	_WriteByte
   861                           
   862                           ;lcd.c: 153:     WaitLCD();
   863  00164A  ECDE  F00A         	call	_WaitLCD	;wreg free
   864  00164E  0012               	return		;funcret
   865  001650                     __end_of_LCDPutChar:
   866                           	opt callstack 0
   867                           
   868 ;; *************** function _LCDInit *****************
   869 ;; Defined at:
   870 ;;		line 94 in file "lcd.c"
   871 ;; Parameters:    Size  Location     Type
   872 ;;		None
   873 ;; Auto vars:     Size  Location     Type
   874 ;;		None
   875 ;; Return value:  Size  Location     Type
   876 ;;                  1    wreg      void 
   877 ;; Registers used:
   878 ;;		wreg, status,2, status,0, cstack
   879 ;; Tracked objects:
   880 ;;		On entry : 0/0
   881 ;;		On exit  : 0/0
   882 ;;		Unchanged: 0/0
   883 ;; Data sizes:     COMRAM   BANK0   BANK1   BANK2   BANK3   BANK4   BANK5   BANK6   BANK7   BANK8   BANK9  BANK10  BANK1
      +1  BANK12  BANK13  BANK14  BANK15
   884 ;;      Params:         0       0       0       0       0       0       0       0       0       0       0       0       
      +0       0       0       0       0
   885 ;;      Locals:         0       0       0       0       0       0       0       0       0       0       0       0       
      +0       0       0       0       0
   886 ;;      Temps:          1       0       0       0       0       0       0       0       0       0       0       0       
      +0       0       0       0       0
   887 ;;      Totals:         1       0       0       0       0       0       0       0       0       0       0       0       
      +0       0       0       0       0
   888 ;;Total ram usage:        1 bytes
   889 ;; Hardware stack levels used:    1
   890 ;; Hardware stack levels required when called:    7
   891 ;; This function calls:
   892 ;;		_WaitLCD
   893 ;;		_WriteNibble
   894 ;; This function is called by:
   895 ;;		_main
   896 ;; This function uses a non-reentrant model
   897 ;;
   898                           
   899                           	psect	text6
   900  001030                     __ptext6:
   901                           	opt callstack 0
   902  001030                     _LCDInit:
   903                           	opt callstack 23
   904  001030                     
   905                           ;lcd.c: 96:     TRISDbits.TRISD7 = 0;
   906  001030  9E95               	bcf	149,7,c	;volatile
   907                           
   908                           ;lcd.c: 97:     TRISDbits.TRISD6 = 0;
   909  001032  9C95               	bcf	149,6,c	;volatile
   910                           
   911                           ;lcd.c: 98:     TRISDbits.TRISD5 = 0;
   912  001034  9A95               	bcf	149,5,c	;volatile
   913                           
   914                           ;lcd.c: 99:     TRISDbits.TRISD4 = 0;
   915  001036  9895               	bcf	149,4,c	;volatile
   916                           
   917                           ;lcd.c: 100:     TRISDbits.TRISD0 = 0;
   918  001038  9095               	bcf	149,0,c	;volatile
   919                           
   920                           ;lcd.c: 101:     TRISDbits.TRISD1 = 0;
   921  00103A  9295               	bcf	149,1,c	;volatile
   922                           
   923                           ;lcd.c: 102:     TRISDbits.TRISD2 = 0;
   924  00103C  9495               	bcf	149,2,c	;volatile
   925                           
   926                           ;lcd.c: 103:     TRISDbits.TRISD3 = 0;
   927  00103E  9695               	bcf	149,3,c	;volatile
   928                           
   929                           ;lcd.c: 105:     LATDbits.LATD7 = 1;
   930  001040  8E8C               	bsf	140,7,c	;volatile
   931  001042                     
   932                           ;lcd.c: 106:     _delay(30000);
   933  001042  0E27               	movlw	39
   934  001044  6E1A               	movwf	??_LCDInit^0,c
   935  001046  0EF5               	movlw	245
   936  001048                     u537:
   937  001048  2EE8               	decfsz	wreg,f,c
   938  00104A  D7FE               	bra	u537
   939  00104C  2E1A               	decfsz	??_LCDInit^0,f,c
   940  00104E  D7FC               	bra	u537
   941  001050  F000               	nop	
   942  001052                     
   943                           ;lcd.c: 107:     WriteNibble(1, 0x03);
   944  001052  0E03               	movlw	3
   945  001054  6E17               	movwf	WriteNibble@data^0,c
   946  001056  0E01               	movlw	1
   947  001058  EC53  F00A         	call	_WriteNibble
   948  00105C                     
   949                           ;lcd.c: 108:     _delay(3000);
   950  00105C  0E04               	movlw	4
   951  00105E  6E1A               	movwf	??_LCDInit^0,c
   952  001060  0EE4               	movlw	228
   953  001062                     u547:
   954  001062  2EE8               	decfsz	wreg,f,c
   955  001064  D7FE               	bra	u547
   956  001066  2E1A               	decfsz	??_LCDInit^0,f,c
   957  001068  D7FC               	bra	u547
   958  00106A  D000               	nop2	
   959                           
   960                           ;lcd.c: 109:     WriteNibble(1, 0x03);
   961  00106C  0E03               	movlw	3
   962  00106E  6E17               	movwf	WriteNibble@data^0,c
   963  001070  0E01               	movlw	1
   964  001072  EC53  F00A         	call	_WriteNibble
   965  001076                     
   966                           ;lcd.c: 110:     _delay(100);
   967  001076  0E21               	movlw	33
   968  001078                     u557:
   969  001078  2EE8               	decfsz	wreg,f,c
   970  00107A  D7FE               	bra	u557
   971  00107C  F000               	nop	
   972  00107E                     
   973                           ;lcd.c: 111:     WriteNibble(1, 0x03);
   974  00107E  0E03               	movlw	3
   975  001080  6E17               	movwf	WriteNibble@data^0,c
   976  001082  0E01               	movlw	1
   977  001084  EC53  F00A         	call	_WriteNibble
   978                           
   979                           ;lcd.c: 112:     _delay(100);
   980  001088  0E21               	movlw	33
   981  00108A                     u567:
   982  00108A  2EE8               	decfsz	wreg,f,c
   983  00108C  D7FE               	bra	u567
   984  00108E  F000               	nop	
   985  001090                     
   986                           ;lcd.c: 113:     WriteNibble(1, 0b00000010);
   987  001090  0E02               	movlw	2
   988  001092  6E17               	movwf	WriteNibble@data^0,c
   989  001094  0E01               	movlw	1
   990  001096  EC53  F00A         	call	_WriteNibble
   991  00109A                     
   992                           ;lcd.c: 114:     WaitLCD();
   993  00109A  ECDE  F00A         	call	_WaitLCD	;wreg free
   994  00109E                     
   995                           ;lcd.c: 115:     WriteNibble(1, 0b00000010);
   996  00109E  0E02               	movlw	2
   997  0010A0  6E17               	movwf	WriteNibble@data^0,c
   998  0010A2  0E01               	movlw	1
   999  0010A4  EC53  F00A         	call	_WriteNibble
  1000  0010A8                     
  1001                           ;lcd.c: 116:     WriteNibble(1, 0b00001000);
  1002  0010A8  0E08               	movlw	8
  1003  0010AA  6E17               	movwf	WriteNibble@data^0,c
  1004  0010AC  0E01               	movlw	1
  1005  0010AE  EC53  F00A         	call	_WriteNibble
  1006  0010B2                     
  1007                           ;lcd.c: 117:     WaitLCD();
  1008  0010B2  ECDE  F00A         	call	_WaitLCD	;wreg free
  1009  0010B6                     
  1010                           ;lcd.c: 118:     WriteNibble(1, 0b00000000);
  1011  0010B6  0E00               	movlw	0
  1012  0010B8  6E17               	movwf	WriteNibble@data^0,c
  1013  0010BA  0E01               	movlw	1
  1014  0010BC  EC53  F00A         	call	_WriteNibble
  1015  0010C0                     
  1016                           ;lcd.c: 119:     WriteNibble(1, 0b00001000);
  1017  0010C0  0E08               	movlw	8
  1018  0010C2  6E17               	movwf	WriteNibble@data^0,c
  1019  0010C4  0E01               	movlw	1
  1020  0010C6  EC53  F00A         	call	_WriteNibble
  1021  0010CA                     
  1022                           ;lcd.c: 120:     WaitLCD();
  1023  0010CA  ECDE  F00A         	call	_WaitLCD	;wreg free
  1024  0010CE                     
  1025                           ;lcd.c: 121:     WriteNibble(1, 0b00000000);
  1026  0010CE  0E00               	movlw	0
  1027  0010D0  6E17               	movwf	WriteNibble@data^0,c
  1028  0010D2  0E01               	movlw	1
  1029  0010D4  EC53  F00A         	call	_WriteNibble
  1030  0010D8                     
  1031                           ;lcd.c: 122:     WriteNibble(1, 0b00001100);
  1032  0010D8  0E0C               	movlw	12
  1033  0010DA  6E17               	movwf	WriteNibble@data^0,c
  1034  0010DC  0E01               	movlw	1
  1035  0010DE  EC53  F00A         	call	_WriteNibble
  1036  0010E2                     
  1037                           ;lcd.c: 125:     WaitLCD();
  1038  0010E2  ECDE  F00A         	call	_WaitLCD	;wreg free
  1039  0010E6                     
  1040                           ;lcd.c: 126:     WriteNibble(1, 0b00000000);
  1041  0010E6  0E00               	movlw	0
  1042  0010E8  6E17               	movwf	WriteNibble@data^0,c
  1043  0010EA  0E01               	movlw	1
  1044  0010EC  EC53  F00A         	call	_WriteNibble
  1045  0010F0                     
  1046                           ;lcd.c: 127:     WriteNibble(1, 0b00000001);
  1047  0010F0  0E01               	movlw	1
  1048  0010F2  6E17               	movwf	WriteNibble@data^0,c
  1049  0010F4  0E01               	movlw	1
  1050  0010F6  EC53  F00A         	call	_WriteNibble
  1051  0010FA                     
  1052                           ;lcd.c: 128:     WaitLCD();
  1053  0010FA  ECDE  F00A         	call	_WaitLCD	;wreg free
  1054  0010FE                     
  1055                           ;lcd.c: 129:     WriteNibble(1, 0b00000000);
  1056  0010FE  0E00               	movlw	0
  1057  001100  6E17               	movwf	WriteNibble@data^0,c
  1058  001102  0E01               	movlw	1
  1059  001104  EC53  F00A         	call	_WriteNibble
  1060  001108                     
  1061                           ;lcd.c: 130:     WriteNibble(1, 0b00000110);
  1062  001108  0E06               	movlw	6
  1063  00110A  6E17               	movwf	WriteNibble@data^0,c
  1064  00110C  0E01               	movlw	1
  1065  00110E  EC53  F00A         	call	_WriteNibble
  1066  001112                     
  1067                           ;lcd.c: 131:     WaitLCD();
  1068  001112  ECDE  F00A         	call	_WaitLCD	;wreg free
  1069  001116  0012               	return		;funcret
  1070  001118                     __end_of_LCDInit:
  1071                           	opt callstack 0
  1072                           
  1073 ;; *************** function _LCDGoto *****************
  1074 ;; Defined at:
  1075 ;;		line 141 in file "lcd.c"
  1076 ;; Parameters:    Size  Location     Type
  1077 ;;  column          1    wreg     unsigned char 
  1078 ;;  row             1   27[COMRAM] unsigned char 
  1079 ;; Auto vars:     Size  Location     Type
  1080 ;;  column          1   32[COMRAM] unsigned char 
  1081 ;; Return value:  Size  Location     Type
  1082 ;;                  1    wreg      void 
  1083 ;; Registers used:
  1084 ;;		wreg, status,2, status,0, cstack
  1085 ;; Tracked objects:
  1086 ;;		On entry : 0/0
  1087 ;;		On exit  : 0/0
  1088 ;;		Unchanged: 0/0
  1089 ;; Data sizes:     COMRAM   BANK0   BANK1   BANK2   BANK3   BANK4   BANK5   BANK6   BANK7   BANK8   BANK9  BANK10  BANK1
      +1  BANK12  BANK13  BANK14  BANK15
  1090 ;;      Params:         1       0       0       0       0       0       0       0       0       0       0       0       
      +0       0       0       0       0
  1091 ;;      Locals:         3       0       0       0       0       0       0       0       0       0       0       0       
      +0       0       0       0       0
  1092 ;;      Temps:          2       0       0       0       0       0       0       0       0       0       0       0       
      +0       0       0       0       0
  1093 ;;      Totals:         6       0       0       0       0       0       0       0       0       0       0       0       
      +0       0       0       0       0
  1094 ;;Total ram usage:        6 bytes
  1095 ;; Hardware stack levels used:    1
  1096 ;; Hardware stack levels required when called:    7
  1097 ;; This function calls:
  1098 ;;		_WaitLCD
  1099 ;;		_WriteByte
  1100 ;; This function is called by:
  1101 ;;		_main
  1102 ;;		_LCDWriteHexa
  1103 ;;		_LCDWriteFloat
  1104 ;;		_LCDWriteInt
  1105 ;; This function uses a non-reentrant model
  1106 ;;
  1107                           
  1108                           	psect	text7
  1109  001382                     __ptext7:
  1110                           	opt callstack 0
  1111  001382                     _LCDGoto:
  1112                           	opt callstack 23
  1113                           
  1114                           ;incstack = 0
  1115                           ;LCDGoto@column stored from wreg
  1116  001382  6E21               	movwf	LCDGoto@column^0,c
  1117  001384                     
  1118                           ;lcd.c: 141: void LCDGoto(UINT8_T column, UINT8_T row);lcd.c: 142: {;lcd.c: 143:     if 
      +                          ((row > (2 - 1)) || (column > (16 - 1)))
  1119  001384  0E02               	movlw	2
  1120  001386  601C               	cpfslt	LCDGoto@row^0,c
  1121  001388  EFC8  F009         	goto	u391
  1122  00138C  EFCA  F009         	goto	u390
  1123  001390                     u391:
  1124  001390  EFF5  F009         	goto	l124
  1125  001394                     u390:
  1126  001394  0E0F               	movlw	15
  1127  001396  6421               	cpfsgt	LCDGoto@column^0,c
  1128  001398  EFD0  F009         	goto	u401
  1129  00139C  EFD2  F009         	goto	u400
  1130  0013A0                     u401:
  1131  0013A0  EFD4  F009         	goto	l1413
  1132  0013A4                     u400:
  1133  0013A4  EFF5  F009         	goto	l124
  1134  0013A8                     l1413:
  1135                           
  1136                           ;lcd.c: 146:     WriteByte(1, (row == 1) ? (0xC0 | column) : (0x80 | column));
  1137  0013A8  041C               	decf	LCDGoto@row^0,w,c
  1138  0013AA  B4D8               	btfsc	status,2,c
  1139  0013AC  EFDA  F009         	goto	u411
  1140  0013B0  EFDC  F009         	goto	u410
  1141  0013B4                     u411:
  1142  0013B4  EFE6  F009         	goto	l1417
  1143  0013B8                     u410:
  1144  0013B8  0E80               	movlw	128
  1145  0013BA  C021  F01D         	movff	LCDGoto@column,??_LCDGoto
  1146  0013BE  6A1E               	clrf	(??_LCDGoto+1)^0,c
  1147  0013C0  101D               	iorwf	??_LCDGoto^0,w,c
  1148  0013C2  6E1F               	movwf	_LCDGoto$586^0,c
  1149  0013C4  501E               	movf	(??_LCDGoto+1)^0,w,c
  1150  0013C6  6E20               	movwf	(_LCDGoto$586+1)^0,c
  1151  0013C8  EFEE  F009         	goto	l1419
  1152  0013CC                     l1417:
  1153  0013CC  0EC0               	movlw	192
  1154  0013CE  C021  F01D         	movff	LCDGoto@column,??_LCDGoto
  1155  0013D2  6A1E               	clrf	(??_LCDGoto+1)^0,c
  1156  0013D4  101D               	iorwf	??_LCDGoto^0,w,c
  1157  0013D6  6E1F               	movwf	_LCDGoto$586^0,c
  1158  0013D8  501E               	movf	(??_LCDGoto+1)^0,w,c
  1159  0013DA  6E20               	movwf	(_LCDGoto$586+1)^0,c
  1160  0013DC                     l1419:
  1161  0013DC  C01F  F01A         	movff	_LCDGoto$586,WriteByte@data
  1162  0013E0  0E01               	movlw	1
  1163  0013E2  ECFA  F00A         	call	_WriteByte
  1164  0013E6                     
  1165                           ;lcd.c: 147:     WaitLCD();
  1166  0013E6  ECDE  F00A         	call	_WaitLCD	;wreg free
  1167  0013EA                     l124:
  1168  0013EA  0012               	return		;funcret
  1169  0013EC                     __end_of_LCDGoto:
  1170                           	opt callstack 0
  1171                           
  1172 ;; *************** function _WriteByte *****************
  1173 ;; Defined at:
  1174 ;;		line 88 in file "lcd.c"
  1175 ;; Parameters:    Size  Location     Type
  1176 ;;  cmd             1    wreg     unsigned char 
  1177 ;;  data            1   25[COMRAM] unsigned char 
  1178 ;; Auto vars:     Size  Location     Type
  1179 ;;  cmd             1   26[COMRAM] unsigned char 
  1180 ;; Return value:  Size  Location     Type
  1181 ;;                  1    wreg      void 
  1182 ;; Registers used:
  1183 ;;		wreg, status,2, status,0, cstack
  1184 ;; Tracked objects:
  1185 ;;		On entry : 0/0
  1186 ;;		On exit  : 0/0
  1187 ;;		Unchanged: 0/0
  1188 ;; Data sizes:     COMRAM   BANK0   BANK1   BANK2   BANK3   BANK4   BANK5   BANK6   BANK7   BANK8   BANK9  BANK10  BANK1
      +1  BANK12  BANK13  BANK14  BANK15
  1189 ;;      Params:         1       0       0       0       0       0       0       0       0       0       0       0       
      +0       0       0       0       0
  1190 ;;      Locals:         1       0       0       0       0       0       0       0       0       0       0       0       
      +0       0       0       0       0
  1191 ;;      Temps:          0       0       0       0       0       0       0       0       0       0       0       0       
      +0       0       0       0       0
  1192 ;;      Totals:         2       0       0       0       0       0       0       0       0       0       0       0       
      +0       0       0       0       0
  1193 ;;Total ram usage:        2 bytes
  1194 ;; Hardware stack levels used:    1
  1195 ;; Hardware stack levels required when called:    6
  1196 ;; This function calls:
  1197 ;;		_WriteNibble
  1198 ;; This function is called by:
  1199 ;;		_LCDGoto
  1200 ;;		_LCDPutChar
  1201 ;;		_LCDClear
  1202 ;;		_LCDShiftDisplay
  1203 ;; This function uses a non-reentrant model
  1204 ;;
  1205                           
  1206                           	psect	text8
  1207  0015F4                     __ptext8:
  1208                           	opt callstack 0
  1209  0015F4                     _WriteByte:
  1210                           	opt callstack 23
  1211                           
  1212                           ;incstack = 0
  1213                           ;WriteByte@cmd stored from wreg
  1214  0015F4  6E1B               	movwf	WriteByte@cmd^0,c
  1215  0015F6                     
  1216                           ;lcd.c: 88: void WriteByte(UINT8_T cmd, UINT8_T data);lcd.c: 89: {;lcd.c: 90:     WriteN
      +                          ibble(cmd, data >> 4);
  1217  0015F6  381A               	swapf	WriteByte@data^0,w,c
  1218  0015F8  0B0F               	andlw	15
  1219  0015FA  6E17               	movwf	WriteNibble@data^0,c
  1220  0015FC  501B               	movf	WriteByte@cmd^0,w,c
  1221  0015FE  EC53  F00A         	call	_WriteNibble
  1222                           
  1223                           ;lcd.c: 91:     WriteNibble(cmd, data);
  1224  001602  C01A  F017         	movff	WriteByte@data,WriteNibble@data
  1225  001606  501B               	movf	WriteByte@cmd^0,w,c
  1226  001608  EC53  F00A         	call	_WriteNibble
  1227  00160C  0012               	return		;funcret
  1228  00160E                     __end_of_WriteByte:
  1229                           	opt callstack 0
  1230                           
  1231 ;; *************** function _WriteNibble *****************
  1232 ;; Defined at:
  1233 ;;		line 71 in file "lcd.c"
  1234 ;; Parameters:    Size  Location     Type
  1235 ;;  cmd             1    wreg     unsigned char 
  1236 ;;  data            1   22[COMRAM] unsigned char 
  1237 ;; Auto vars:     Size  Location     Type
  1238 ;;  cmd             1   24[COMRAM] unsigned char 
  1239 ;; Return value:  Size  Location     Type
  1240 ;;                  1    wreg      void 
  1241 ;; Registers used:
  1242 ;;		wreg, status,2, status,0
  1243 ;; Tracked objects:
  1244 ;;		On entry : 0/0
  1245 ;;		On exit  : 0/0
  1246 ;;		Unchanged: 0/0
  1247 ;; Data sizes:     COMRAM   BANK0   BANK1   BANK2   BANK3   BANK4   BANK5   BANK6   BANK7   BANK8   BANK9  BANK10  BANK1
      +1  BANK12  BANK13  BANK14  BANK15
  1248 ;;      Params:         1       0       0       0       0       0       0       0       0       0       0       0       
      +0       0       0       0       0
  1249 ;;      Locals:         1       0       0       0       0       0       0       0       0       0       0       0       
      +0       0       0       0       0
  1250 ;;      Temps:          1       0       0       0       0       0       0       0       0       0       0       0       
      +0       0       0       0       0
  1251 ;;      Totals:         3       0       0       0       0       0       0       0       0       0       0       0       
      +0       0       0       0       0
  1252 ;;Total ram usage:        3 bytes
  1253 ;; Hardware stack levels used:    1
  1254 ;; Hardware stack levels required when called:    5
  1255 ;; This function calls:
  1256 ;;		Nothing
  1257 ;; This function is called by:
  1258 ;;		_WriteByte
  1259 ;;		_LCDInit
  1260 ;; This function uses a non-reentrant model
  1261 ;;
  1262                           
  1263                           	psect	text9
  1264  0014A6                     __ptext9:
  1265                           	opt callstack 0
  1266  0014A6                     _WriteNibble:
  1267                           	opt callstack 23
  1268                           
  1269                           ;incstack = 0
  1270                           ;WriteNibble@cmd stored from wreg
  1271  0014A6  6E19               	movwf	WriteNibble@cmd^0,c
  1272  0014A8                     
  1273                           ;lcd.c: 71: void WriteNibble(UINT8_T cmd, UINT8_T data);lcd.c: 72: {;lcd.c: 73:     LATD
      +                          bits.LATD4 = (cmd ? 0 : 1);
  1274  0014A8  5019               	movf	WriteNibble@cmd^0,w,c
  1275  0014AA  B4D8               	btfsc	status,2,c
  1276  0014AC  EF5A  F00A         	goto	u291
  1277  0014B0  EF5E  F00A         	goto	u290
  1278  0014B4                     u291:
  1279  0014B4  6A18               	clrf	??_WriteNibble^0,c
  1280  0014B6  2A18               	incf	??_WriteNibble^0,f,c
  1281  0014B8  EF5F  F00A         	goto	u308
  1282  0014BC                     u290:
  1283  0014BC  6A18               	clrf	??_WriteNibble^0,c
  1284  0014BE                     u308:
  1285  0014BE  3A18               	swapf	??_WriteNibble^0,f,c
  1286  0014C0  508C               	movf	140,w,c	;volatile
  1287  0014C2  1818               	xorwf	??_WriteNibble^0,w,c
  1288  0014C4  0BEF               	andlw	-17
  1289  0014C6  1818               	xorwf	??_WriteNibble^0,w,c
  1290  0014C8  6E8C               	movwf	140,c	;volatile
  1291  0014CA                     
  1292                           ;lcd.c: 74:     LATDbits.LATD5 = 0;
  1293  0014CA  9A8C               	bcf	140,5,c	;volatile
  1294  0014CC                     
  1295                           ;lcd.c: 75:     LATDbits.LATD6 = 1;
  1296  0014CC  8C8C               	bsf	140,6,c	;volatile
  1297  0014CE                     
  1298                           ;lcd.c: 77:     LATDbits.LATD0 = LATDbits.LATD1 = LATDbits.LATD2 = LATDbits.LATD3 = 0;
  1299  0014CE  968C               	bcf	140,3,c	;volatile
  1300  0014D0  948C               	bcf	140,2,c	;volatile
  1301  0014D2  928C               	bcf	140,1,c	;volatile
  1302  0014D4  908C               	bcf	140,0,c	;volatile
  1303  0014D6                     
  1304                           ;lcd.c: 78:     __nop();
  1305  0014D6  F000               	nop	
  1306  0014D8                     
  1307                           ;lcd.c: 79:     __nop();
  1308  0014D8  F000               	nop	
  1309                           
  1310                           ;lcd.c: 81:     LATD = (LATD & 0xF0) | (data & 0x0F);
  1311  0014DA  C017  F018         	movff	WriteNibble@data,??_WriteNibble
  1312  0014DE  0E0F               	movlw	15
  1313  0014E0  1618               	andwf	??_WriteNibble^0,f,c
  1314  0014E2  508C               	movf	140,w,c	;volatile
  1315  0014E4  0BF0               	andlw	240
  1316  0014E6  1018               	iorwf	??_WriteNibble^0,w,c
  1317  0014E8  6E8C               	movwf	140,c	;volatile
  1318  0014EA                     
  1319                           ;lcd.c: 82:     __nop();
  1320  0014EA  F000               	nop	
  1321  0014EC                     
  1322                           ;lcd.c: 83:     __nop();
  1323  0014EC  F000               	nop	
  1324  0014EE                     
  1325                           ;lcd.c: 85:     LATDbits.LATD6 = 0;
  1326  0014EE  9C8C               	bcf	140,6,c	;volatile
  1327  0014F0  0012               	return		;funcret
  1328  0014F2                     __end_of_WriteNibble:
  1329                           	opt callstack 0
  1330                           
  1331 ;; *************** function _WaitLCD *****************
  1332 ;; Defined at:
  1333 ;;		line 57 in file "lcd.c"
  1334 ;; Parameters:    Size  Location     Type
  1335 ;;		None
  1336 ;; Auto vars:     Size  Location     Type
  1337 ;;  status          1   23[COMRAM] unsigned char 
  1338 ;; Return value:  Size  Location     Type
  1339 ;;                  1    wreg      void 
  1340 ;; Registers used:
  1341 ;;		wreg, status,2, status,0, cstack
  1342 ;; Tracked objects:
  1343 ;;		On entry : 0/0
  1344 ;;		On exit  : 0/0
  1345 ;;		Unchanged: 0/0
  1346 ;; Data sizes:     COMRAM   BANK0   BANK1   BANK2   BANK3   BANK4   BANK5   BANK6   BANK7   BANK8   BANK9  BANK10  BANK1
      +1  BANK12  BANK13  BANK14  BANK15
  1347 ;;      Params:         0       0       0       0       0       0       0       0       0       0       0       0       
      +0       0       0       0       0
  1348 ;;      Locals:         1       0       0       0       0       0       0       0       0       0       0       0       
      +0       0       0       0       0
  1349 ;;      Temps:          0       0       0       0       0       0       0       0       0       0       0       0       
      +0       0       0       0       0
  1350 ;;      Totals:         1       0       0       0       0       0       0       0       0       0       0       0       
      +0       0       0       0       0
  1351 ;;Total ram usage:        1 bytes
  1352 ;; Hardware stack levels used:    1
  1353 ;; Hardware stack levels required when called:    6
  1354 ;; This function calls:
  1355 ;;		_ReadByte
  1356 ;; This function is called by:
  1357 ;;		_LCDInit
  1358 ;;		_LCDGoto
  1359 ;;		_LCDPutChar
  1360 ;;		_LCDClear
  1361 ;; This function uses a non-reentrant model
  1362 ;;
  1363                           
  1364                           	psect	text10
  1365  0015BC                     __ptext10:
  1366                           	opt callstack 0
  1367  0015BC                     _WaitLCD:
  1368                           	opt callstack 23
  1369  0015BC                     
  1370                           ;lcd.c: 59:     UINT8_T status;;lcd.c: 61:     LATDbits.LATD4 = 0;
  1371  0015BC  988C               	bcf	140,4,c	;volatile
  1372                           
  1373                           ;lcd.c: 62:     LATDbits.LATD5 = 1;
  1374  0015BE  8A8C               	bsf	140,5,c	;volatile
  1375  0015C0                     l1327:
  1376                           
  1377                           ;lcd.c: 65:         status = ReadByte();
  1378  0015C0  EC9F  F00A         	call	_ReadByte	;wreg free
  1379  0015C4  6E18               	movwf	WaitLCD@status^0,c
  1380  0015C6                     
  1381                           ;lcd.c: 66:     } while (status & 0x80);
  1382  0015C6  BE18               	btfsc	WaitLCD@status^0,7,c
  1383  0015C8  EFE8  F00A         	goto	u321
  1384  0015CC  EFEA  F00A         	goto	u320
  1385  0015D0                     u321:
  1386  0015D0  EFE0  F00A         	goto	l1327
  1387  0015D4                     u320:
  1388  0015D4                     
  1389                           ;lcd.c: 68:     LATDbits.LATD5 = 0;
  1390  0015D4  9A8C               	bcf	140,5,c	;volatile
  1391  0015D6  0012               	return		;funcret
  1392  0015D8                     __end_of_WaitLCD:
  1393                           	opt callstack 0
  1394                           
  1395 ;; *************** function _ReadByte *****************
  1396 ;; Defined at:
  1397 ;;		line 26 in file "lcd.c"
  1398 ;; Parameters:    Size  Location     Type
  1399 ;;		None
  1400 ;; Auto vars:     Size  Location     Type
  1401 ;;  status          1   22[COMRAM] unsigned char 
  1402 ;; Return value:  Size  Location     Type
  1403 ;;                  1    wreg      unsigned char 
  1404 ;; Registers used:
  1405 ;;		wreg, status,2, status,0
  1406 ;; Tracked objects:
  1407 ;;		On entry : 0/0
  1408 ;;		On exit  : 0/0
  1409 ;;		Unchanged: 0/0
  1410 ;; Data sizes:     COMRAM   BANK0   BANK1   BANK2   BANK3   BANK4   BANK5   BANK6   BANK7   BANK8   BANK9  BANK10  BANK1
      +1  BANK12  BANK13  BANK14  BANK15
  1411 ;;      Params:         0       0       0       0       0       0       0       0       0       0       0       0       
      +0       0       0       0       0
  1412 ;;      Locals:         1       0       0       0       0       0       0       0       0       0       0       0       
      +0       0       0       0       0
  1413 ;;      Temps:          0       0       0       0       0       0       0       0       0       0       0       0       
      +0       0       0       0       0
  1414 ;;      Totals:         1       0       0       0       0       0       0       0       0       0       0       0       
      +0       0       0       0       0
  1415 ;;Total ram usage:        1 bytes
  1416 ;; Hardware stack levels used:    1
  1417 ;; Hardware stack levels required when called:    5
  1418 ;; This function calls:
  1419 ;;		Nothing
  1420 ;; This function is called by:
  1421 ;;		_WaitLCD
  1422 ;; This function uses a non-reentrant model
  1423 ;;
  1424                           
  1425                           	psect	text11
  1426  00153E                     __ptext11:
  1427                           	opt callstack 0
  1428  00153E                     _ReadByte:
  1429                           	opt callstack 23
  1430  00153E                     
  1431                           ;lcd.c: 28:     UINT8_T status;;lcd.c: 30:     TRISDbits.TRISD0 = 1;
  1432  00153E  8095               	bsf	149,0,c	;volatile
  1433                           
  1434                           ;lcd.c: 31:     TRISDbits.TRISD1 = 1;
  1435  001540  8295               	bsf	149,1,c	;volatile
  1436                           
  1437                           ;lcd.c: 32:     TRISDbits.TRISD2 = 1;
  1438  001542  8495               	bsf	149,2,c	;volatile
  1439                           
  1440                           ;lcd.c: 33:     TRISDbits.TRISD3 = 1;
  1441  001544  8695               	bsf	149,3,c	;volatile
  1442                           
  1443                           ;lcd.c: 35:     LATDbits.LATD6 = 1;
  1444  001546  8C8C               	bsf	140,6,c	;volatile
  1445                           
  1446                           ;lcd.c: 36:     __nop();
  1447  001548  F000               	nop	
  1448                           
  1449                           ;lcd.c: 37:     __nop();
  1450  00154A  F000               	nop	
  1451  00154C                     
  1452                           ;lcd.c: 39:     status = PORTD << 4;
  1453  00154C  3883               	swapf	131,w,c	;volatile
  1454  00154E  0BF0               	andlw	240
  1455  001550  6E17               	movwf	ReadByte@status^0,c
  1456  001552                     
  1457                           ;lcd.c: 40:     LATDbits.LATD6 = 0;
  1458  001552  9C8C               	bcf	140,6,c	;volatile
  1459  001554                     
  1460                           ;lcd.c: 42:     LATDbits.LATD6 = 1;
  1461  001554  8C8C               	bsf	140,6,c	;volatile
  1462  001556                     
  1463                           ;lcd.c: 43:     __nop();
  1464  001556  F000               	nop	
  1465  001558                     
  1466                           ;lcd.c: 44:     __nop();
  1467  001558  F000               	nop	
  1468                           
  1469                           ;lcd.c: 46:     status |= PORTD & 0x0F;
  1470  00155A  5083               	movf	131,w,c	;volatile
  1471  00155C  0B0F               	andlw	15
  1472  00155E  1217               	iorwf	ReadByte@status^0,f,c
  1473  001560                     
  1474                           ;lcd.c: 47:     LATDbits.LATD6 = 0;
  1475  001560  9C8C               	bcf	140,6,c	;volatile
  1476  001562                     
  1477                           ;lcd.c: 49:     TRISDbits.TRISD0 = 0;
  1478  001562  9095               	bcf	149,0,c	;volatile
  1479  001564                     
  1480                           ;lcd.c: 50:     TRISDbits.TRISD1 = 0;
  1481  001564  9295               	bcf	149,1,c	;volatile
  1482  001566                     
  1483                           ;lcd.c: 51:     TRISDbits.TRISD2 = 0;
  1484  001566  9495               	bcf	149,2,c	;volatile
  1485  001568                     
  1486                           ;lcd.c: 52:     TRISDbits.TRISD3 = 0;
  1487  001568  9695               	bcf	149,3,c	;volatile
  1488  00156A                     
  1489                           ;lcd.c: 54:     return(status);
  1490  00156A  5017               	movf	ReadByte@status^0,w,c
  1491  00156C  0012               	return		;funcret
  1492  00156E                     __end_of_ReadByte:
  1493                           	opt callstack 0
  1494                           
  1495 ;; *************** function _SerialRxPinInterrupt *****************
  1496 ;; Defined at:
  1497 ;;		line 65 in file "uart.c"
  1498 ;; Parameters:    Size  Location     Type
  1499 ;;		None
  1500 ;; Auto vars:     Size  Location     Type
  1501 ;;		None
  1502 ;; Return value:  Size  Location     Type
  1503 ;;                  1    wreg      void 
  1504 ;; Registers used:
  1505 ;;		wreg, fsr0l, fsr0h, fsr2l, fsr2h, status,2, status,0, pclath, tosl, tblptrl, tblptrh, tblptru, cstack
  1506 ;; Tracked objects:
  1507 ;;		On entry : 0/0
  1508 ;;		On exit  : 0/0
  1509 ;;		Unchanged: 0/0
  1510 ;; Data sizes:     COMRAM   BANK0   BANK1   BANK2   BANK3   BANK4   BANK5   BANK6   BANK7   BANK8   BANK9  BANK10  BANK1
      +1  BANK12  BANK13  BANK14  BANK15
  1511 ;;      Params:         0       0       0       0       0       0       0       0       0       0       0       0       
      +0       0       0       0       0
  1512 ;;      Locals:         0       0       0       0       0       0       0       0       0       0       0       0       
      +0       0       0       0       0
  1513 ;;      Temps:         10       0       0       0       0       0       0       0       0       0       0       0       
      +0       0       0       0       0
  1514 ;;      Totals:        10       0       0       0       0       0       0       0       0       0       0       0       
      +0       0       0       0       0
  1515 ;;Total ram usage:       10 bytes
  1516 ;; Hardware stack levels used:    1
  1517 ;; Hardware stack levels required when called:    4
  1518 ;; This function calls:
  1519 ;;		_LCDWriteStr
  1520 ;;		_exit
  1521 ;;		i2_LCDGoto
  1522 ;;		i2_LCDPutChar
  1523 ;;		i2_UARTReadByte
  1524 ;; This function is called by:
  1525 ;;		Interrupt level 2
  1526 ;; This function uses a non-reentrant model
  1527 ;;
  1528                           
  1529                           	psect	intcode
  1530  000008                     __pintcode:
  1531                           	opt callstack 0
  1532  000008                     _SerialRxPinInterrupt:
  1533                           	opt callstack 23
  1534                           
  1535                           ;incstack = 0
  1536  000008  8230               	bsf	int$flags,1,c	;set compiler interrupt flag (level 2)
  1537  00000A  CFFA F00D          	movff	pclath,??_SerialRxPinInterrupt
  1538  00000E  CFFB F00E          	movff	pclatu,??_SerialRxPinInterrupt+1
  1539  000012  CFE9 F00F          	movff	fsr0l,??_SerialRxPinInterrupt+2
  1540  000016  CFEA F010          	movff	fsr0h,??_SerialRxPinInterrupt+3
  1541  00001A  CFD9 F011          	movff	fsr2l,??_SerialRxPinInterrupt+4
  1542  00001E  CFDA F012          	movff	fsr2h,??_SerialRxPinInterrupt+5
  1543  000022  CFF6 F013          	movff	tblptrl,??_SerialRxPinInterrupt+6
  1544  000026  CFF7 F014          	movff	tblptrh,??_SerialRxPinInterrupt+7
  1545  00002A  CFF8 F015          	movff	tblptru,??_SerialRxPinInterrupt+8
  1546  00002E  CFF5 F016          	movff	tablat,??_SerialRxPinInterrupt+9
  1547  000032                     
  1548                           ;uart.c: 67:     if (PIR1bits.RCIF == 1) {
  1549  000032  AA9E               	btfss	158,5,c	;volatile
  1550  000034  EF1E  F000         	goto	i2u48_41
  1551  000038  EF20  F000         	goto	i2u48_40
  1552  00003C                     i2u48_41:
  1553  00003C  EF52  F000         	goto	i2l64
  1554  000040                     i2u48_40:
  1555  000040                     
  1556                           ;uart.c: 69:         if (RCSTA1bits.FERR) {
  1557  000040  A4AB               	btfss	171,2,c	;volatile
  1558  000042  EF25  F000         	goto	i2u49_41
  1559  000046  EF27  F000         	goto	i2u49_40
  1560  00004A                     i2u49_41:
  1561  00004A  EF3A  F000         	goto	i2l60
  1562  00004E                     i2u49_40:
  1563  00004E                     
  1564                           ;uart.c: 70:             LCDGoto(0, 1);
  1565  00004E  0E01               	movlw	1
  1566  000050  6E06               	movwf	i2LCDGoto@row^0,c
  1567  000052  0E00               	movlw	0
  1568  000054  ECF6  F009         	call	i2_LCDGoto
  1569  000058                     
  1570                           ;uart.c: 71:             LCDWriteStr("Framing Error");
  1571  000058  0E12               	movlw	low STR_1
  1572  00005A  6E07               	movwf	LCDWriteStr@string^0,c
  1573  00005C  0E10               	movlw	high STR_1
  1574  00005E  6E08               	movwf	(LCDWriteStr@string+1)^0,c
  1575  000060  EC4D  F009         	call	_LCDWriteStr	;wreg free
  1576  000064                     i2l1505:
  1577                           
  1578                           ;uart.c: 72:             exit(1);
  1579  000064  0E00               	movlw	0
  1580  000066  6E0C               	movwf	(exit@code+1)^0,c
  1581  000068  0E01               	movlw	1
  1582  00006A  6E0B               	movwf	exit@code^0,c
  1583  00006C  EC28  F00B         	call	_exit	;wreg free
  1584                           
  1585                           ;uart.c: 73:         } else if (RCSTA1bits.OERR) {
  1586  000070  EF52  F000         	goto	i2l64
  1587  000074                     i2l60:
  1588  000074  A2AB               	btfss	171,1,c	;volatile
  1589  000076  EF3F  F000         	goto	i2u50_41
  1590  00007A  EF41  F000         	goto	i2u50_40
  1591  00007E                     i2u50_41:
  1592  00007E  EF4E  F000         	goto	i2l1513
  1593  000082                     i2u50_40:
  1594  000082                     
  1595                           ;uart.c: 74:             LCDGoto(0, 1);
  1596  000082  0E01               	movlw	1
  1597  000084  6E06               	movwf	i2LCDGoto@row^0,c
  1598  000086  0E00               	movlw	0
  1599  000088  ECF6  F009         	call	i2_LCDGoto
  1600  00008C                     
  1601                           ;uart.c: 75:             LCDWriteStr("Overrun Error");
  1602  00008C  0E20               	movlw	low STR_2
  1603  00008E  6E07               	movwf	LCDWriteStr@string^0,c
  1604  000090  0E10               	movlw	high STR_2
  1605  000092  6E08               	movwf	(LCDWriteStr@string+1)^0,c
  1606  000094  EC4D  F009         	call	_LCDWriteStr	;wreg free
  1607  000098  EF32  F000         	goto	i2l1505
  1608  00009C                     i2l1513:
  1609                           
  1610                           ;uart.c: 78:             LCDPutChar(UARTReadByte());
  1611  00009C  EC3F  F00B         	call	i2_UARTReadByte	;wreg free
  1612  0000A0  EC31  F00B         	call	i2_LCDPutChar
  1613  0000A4                     i2l64:
  1614  0000A4  C016  FFF5         	movff	??_SerialRxPinInterrupt+9,tablat
  1615  0000A8  C015  FFF8         	movff	??_SerialRxPinInterrupt+8,tblptru
  1616  0000AC  C014  FFF7         	movff	??_SerialRxPinInterrupt+7,tblptrh
  1617  0000B0  C013  FFF6         	movff	??_SerialRxPinInterrupt+6,tblptrl
  1618  0000B4  C012  FFDA         	movff	??_SerialRxPinInterrupt+5,fsr2h
  1619  0000B8  C011  FFD9         	movff	??_SerialRxPinInterrupt+4,fsr2l
  1620  0000BC  C010  FFEA         	movff	??_SerialRxPinInterrupt+3,fsr0h
  1621  0000C0  C00F  FFE9         	movff	??_SerialRxPinInterrupt+2,fsr0l
  1622  0000C4  C00E  FFFB         	movff	??_SerialRxPinInterrupt+1,pclatu
  1623  0000C8  C00D  FFFA         	movff	??_SerialRxPinInterrupt,pclath
  1624  0000CC  9230               	bcf	int$flags,1,c	;clear compiler interrupt flag (level 2)
  1625  0000CE  0011               	retfie		f
  1626  0000D0                     __end_of_SerialRxPinInterrupt:
  1627                           	opt callstack 0
  1628                           
  1629 ;; *************** function i2_UARTReadByte *****************
  1630 ;; Defined at:
  1631 ;;		line 60 in file "uart.c"
  1632 ;; Parameters:    Size  Location     Type
  1633 ;;		None
  1634 ;; Auto vars:     Size  Location     Type
  1635 ;;		None
  1636 ;; Return value:  Size  Location     Type
  1637 ;;                  1    wreg      unsigned char 
  1638 ;; Registers used:
  1639 ;;		wreg, status,2
  1640 ;; Tracked objects:
  1641 ;;		On entry : 0/0
  1642 ;;		On exit  : 0/0
  1643 ;;		Unchanged: 0/0
  1644 ;; Data sizes:     COMRAM   BANK0   BANK1   BANK2   BANK3   BANK4   BANK5   BANK6   BANK7   BANK8   BANK9  BANK10  BANK1
      +1  BANK12  BANK13  BANK14  BANK15
  1645 ;;      Params:         0       0       0       0       0       0       0       0       0       0       0       0       
      +0       0       0       0       0
  1646 ;;      Locals:         0       0       0       0       0       0       0       0       0       0       0       0       
      +0       0       0       0       0
  1647 ;;      Temps:          0       0       0       0       0       0       0       0       0       0       0       0       
      +0       0       0       0       0
  1648 ;;      Totals:         0       0       0       0       0       0       0       0       0       0       0       0       
      +0       0       0       0       0
  1649 ;;Total ram usage:        0 bytes
  1650 ;; Hardware stack levels used:    1
  1651 ;; This function calls:
  1652 ;;		Nothing
  1653 ;; This function is called by:
  1654 ;;		_SerialRxPinInterrupt
  1655 ;; This function uses a non-reentrant model
  1656 ;;
  1657                           
  1658                           	psect	text13
  1659  00167E                     __ptext13:
  1660                           	opt callstack 0
  1661  00167E                     i2_UARTReadByte:
  1662                           	opt callstack 26
  1663  00167E                     
  1664                           ;uart.c: 62:     return(RCREG1);
  1665  00167E  50AE               	movf	174,w,c	;volatile
  1666  001680  0012               	return		;funcret
  1667  001682                     __end_ofi2_UARTReadByte:
  1668                           	opt callstack 0
  1669                           
  1670 ;; *************** function i2_LCDGoto *****************
  1671 ;; Defined at:
  1672 ;;		line 141 in file "lcd.c"
  1673 ;; Parameters:    Size  Location     Type
  1674 ;;  column          1    wreg     unsigned char 
  1675 ;;  row             1    5[COMRAM] unsigned char 
  1676 ;; Auto vars:     Size  Location     Type
  1677 ;;  column          1    8[COMRAM] unsigned char 
  1678 ;; Return value:  Size  Location     Type
  1679 ;;                  1    wreg      void 
  1680 ;; Registers used:
  1681 ;;		wreg, status,2, status,0, cstack
  1682 ;; Tracked objects:
  1683 ;;		On entry : 0/0
  1684 ;;		On exit  : 0/0
  1685 ;;		Unchanged: 0/0
  1686 ;; Data sizes:     COMRAM   BANK0   BANK1   BANK2   BANK3   BANK4   BANK5   BANK6   BANK7   BANK8   BANK9  BANK10  BANK1
      +1  BANK12  BANK13  BANK14  BANK15
  1687 ;;      Params:         1       0       0       0       0       0       0       0       0       0       0       0       
      +0       0       0       0       0
  1688 ;;      Locals:         3       0       0       0       0       0       0       0       0       0       0       0       
      +0       0       0       0       0
  1689 ;;      Temps:          2       0       0       0       0       0       0       0       0       0       0       0       
      +0       0       0       0       0
  1690 ;;      Totals:         6       0       0       0       0       0       0       0       0       0       0       0       
      +0       0       0       0       0
  1691 ;;Total ram usage:        6 bytes
  1692 ;; Hardware stack levels used:    1
  1693 ;; Hardware stack levels required when called:    2
  1694 ;; This function calls:
  1695 ;;		i2_WaitLCD
  1696 ;;		i2_WriteByte
  1697 ;; This function is called by:
  1698 ;;		_SerialRxPinInterrupt
  1699 ;; This function uses a non-reentrant model
  1700 ;;
  1701                           
  1702                           	psect	text14
  1703  0013EC                     __ptext14:
  1704                           	opt callstack 0
  1705  0013EC                     i2_LCDGoto:
  1706                           	opt callstack 24
  1707                           
  1708                           ;incstack = 0
  1709                           ;i2LCDGoto@column stored from wreg
  1710  0013EC  6E09               	movwf	i2LCDGoto@column^0,c
  1711  0013EE                     
  1712                           ;lcd.c: 141: void LCDGoto(UINT8_T column, UINT8_T row);lcd.c: 142: {;lcd.c: 143:     if 
      +                          ((row > (2 - 1)) || (column > (16 - 1)))
  1713  0013EE  0E02               	movlw	2
  1714  0013F0  6006               	cpfslt	i2LCDGoto@row^0,c
  1715  0013F2  EFFD  F009         	goto	i2u45_41
  1716  0013F6  EFFF  F009         	goto	i2u45_40
  1717  0013FA                     i2u45_41:
  1718  0013FA  EF2A  F00A         	goto	i2l124
  1719  0013FE                     i2u45_40:
  1720  0013FE  0E0F               	movlw	15
  1721  001400  6409               	cpfsgt	i2LCDGoto@column^0,c
  1722  001402  EF05  F00A         	goto	i2u46_41
  1723  001406  EF07  F00A         	goto	i2u46_40
  1724  00140A                     i2u46_41:
  1725  00140A  EF09  F00A         	goto	i2l1487
  1726  00140E                     i2u46_40:
  1727  00140E  EF2A  F00A         	goto	i2l124
  1728  001412                     i2l1487:
  1729                           
  1730                           ;lcd.c: 146:     WriteByte(1, (row == 1) ? (0xC0 | column) : (0x80 | column));
  1731  001412  0406               	decf	i2LCDGoto@row^0,w,c
  1732  001414  B4D8               	btfsc	status,2,c
  1733  001416  EF0F  F00A         	goto	i2u47_41
  1734  00141A  EF11  F00A         	goto	i2u47_40
  1735  00141E                     i2u47_41:
  1736  00141E  EF1B  F00A         	goto	i2l1491
  1737  001422                     i2u47_40:
  1738  001422  0E80               	movlw	128
  1739  001424  C009  F007         	movff	i2LCDGoto@column,??i2_LCDGoto
  1740  001428  6A08               	clrf	(??i2_LCDGoto+1)^0,c
  1741  00142A  1007               	iorwf	??i2_LCDGoto^0,w,c
  1742  00142C  6E0A               	movwf	i2_LCDGoto$586^0,c
  1743  00142E  5008               	movf	(??i2_LCDGoto+1)^0,w,c
  1744  001430  6E0B               	movwf	(i2_LCDGoto$586+1)^0,c
  1745  001432  EF23  F00A         	goto	i2l1493
  1746  001436                     i2l1491:
  1747  001436  0EC0               	movlw	192
  1748  001438  C009  F007         	movff	i2LCDGoto@column,??i2_LCDGoto
  1749  00143C  6A08               	clrf	(??i2_LCDGoto+1)^0,c
  1750  00143E  1007               	iorwf	??i2_LCDGoto^0,w,c
  1751  001440  6E0A               	movwf	i2_LCDGoto$586^0,c
  1752  001442  5008               	movf	(??i2_LCDGoto+1)^0,w,c
  1753  001444  6E0B               	movwf	(i2_LCDGoto$586+1)^0,c
  1754  001446                     i2l1493:
  1755  001446  C00A  F004         	movff	i2_LCDGoto$586,i2WriteByte@data
  1756  00144A  0E01               	movlw	1
  1757  00144C  EC07  F00B         	call	i2_WriteByte
  1758  001450                     
  1759                           ;lcd.c: 147:     WaitLCD();
  1760  001450  ECEC  F00A         	call	i2_WaitLCD	;wreg free
  1761  001454                     i2l124:
  1762  001454  0012               	return		;funcret
  1763  001456                     __end_ofi2_LCDGoto:
  1764                           	opt callstack 0
  1765                           
  1766 ;; *************** function _exit *****************
  1767 ;; Defined at:
  1768 ;;		line 8 in file "C:\Program Files (x86)\Microchip\xc8\v2.10\pic\sources\c99\common\exit.c"
  1769 ;; Parameters:    Size  Location     Type
  1770 ;;  code            2   10[COMRAM] int 
  1771 ;; Auto vars:     Size  Location     Type
  1772 ;;		None
  1773 ;; Return value:  Size  Location     Type
  1774 ;;                  1    wreg      void 
  1775 ;; Registers used:
  1776 ;;		wreg, fsr2l, fsr2h, status,2, status,0, pclath, tosl, cstack
  1777 ;; Tracked objects:
  1778 ;;		On entry : 0/0
  1779 ;;		On exit  : 0/0
  1780 ;;		Unchanged: 0/0
  1781 ;; Data sizes:     COMRAM   BANK0   BANK1   BANK2   BANK3   BANK4   BANK5   BANK6   BANK7   BANK8   BANK9  BANK10  BANK1
      +1  BANK12  BANK13  BANK14  BANK15
  1782 ;;      Params:         2       0       0       0       0       0       0       0       0       0       0       0       
      +0       0       0       0       0
  1783 ;;      Locals:         0       0       0       0       0       0       0       0       0       0       0       0       
      +0       0       0       0       0
  1784 ;;      Temps:          0       0       0       0       0       0       0       0       0       0       0       0       
      +0       0       0       0       0
  1785 ;;      Totals:         2       0       0       0       0       0       0       0       0       0       0       0       
      +0       0       0       0       0
  1786 ;;Total ram usage:        2 bytes
  1787 ;; Hardware stack levels used:    1
  1788 ;; Hardware stack levels required when called:    2
  1789 ;; This function calls:
  1790 ;;		__Exit
  1791 ;;		___funcs_on_exit
  1792 ;; This function is called by:
  1793 ;;		_SerialRxPinInterrupt
  1794 ;; This function uses a non-reentrant model
  1795 ;;
  1796                           
  1797                           	psect	text15
  1798  001650                     __ptext15:
  1799                           	opt callstack 0
  1800  001650                     _exit:
  1801                           	opt callstack 24
  1802  001650  EC8C  F008         	call	___funcs_on_exit	;wreg free
  1803  001654  C00B  F001         	movff	exit@code,__Exit@ec
  1804  001658  C00C  F002         	movff	exit@code+1,__Exit@ec+1
  1805  00165C  EC3A  F00B         	call	__Exit	;wreg free
  1806  001660  0012               	return		;funcret
  1807  001662                     __end_of_exit:
  1808                           	opt callstack 0
  1809                           
  1810 ;; *************** function ___funcs_on_exit *****************
  1811 ;; Defined at:
  1812 ;;		line 17 in file "C:\Program Files (x86)\Microchip\xc8\v2.10\pic\sources\c99\common\atexit.c"
  1813 ;; Parameters:    Size  Location     Type
  1814 ;;		None
  1815 ;; Auto vars:     Size  Location     Type
  1816 ;;  arg             2    8[COMRAM] PTR void 
  1817 ;;		 -> RAM(3895), 
  1818 ;;  func            2    6[COMRAM] PTR FTN(PTR void ,)void 
  1819 ;;		 -> call(1), 
  1820 ;; Return value:  Size  Location     Type
  1821 ;;                  1    wreg      void 
  1822 ;; Registers used:
  1823 ;;		wreg, fsr2l, fsr2h, status,2, status,0, pclath, tosl, cstack
  1824 ;; Tracked objects:
  1825 ;;		On entry : 0/0
  1826 ;;		On exit  : 0/0
  1827 ;;		Unchanged: 0/0
  1828 ;; Data sizes:     COMRAM   BANK0   BANK1   BANK2   BANK3   BANK4   BANK5   BANK6   BANK7   BANK8   BANK9  BANK10  BANK1
      +1  BANK12  BANK13  BANK14  BANK15
  1829 ;;      Params:         0       0       0       0       0       0       0       0       0       0       0       0       
      +0       0       0       0       0
  1830 ;;      Locals:         4       0       0       0       0       0       0       0       0       0       0       0       
      +0       0       0       0       0
  1831 ;;      Temps:          4       0       0       0       0       0       0       0       0       0       0       0       
      +0       0       0       0       0
  1832 ;;      Totals:         8       0       0       0       0       0       0       0       0       0       0       0       
      +0       0       0       0       0
  1833 ;;Total ram usage:        8 bytes
  1834 ;; Hardware stack levels used:    1
  1835 ;; Hardware stack levels required when called:    1
  1836 ;; This function calls:
  1837 ;;		_call
  1838 ;; This function is called by:
  1839 ;;		_exit
  1840 ;; This function uses a non-reentrant model
  1841 ;;
  1842                           
  1843                           	psect	text16
  1844  001118                     __ptext16:
  1845                           	opt callstack 0
  1846  001118                     ___funcs_on_exit:
  1847                           	opt callstack 24
  1848  001118  EFF1  F008         	goto	i2l1367
  1849  00111C                     i2l1357:
  1850  00111C  C02C  F003         	movff	_slot,??___funcs_on_exit
  1851  001120  C02D  F004         	movff	_slot+1,??___funcs_on_exit+1
  1852  001124  90D8               	bcf	status,0,c
  1853  001126  3603               	rlcf	??___funcs_on_exit^0,f,c
  1854  001128  3604               	rlcf	(??___funcs_on_exit+1)^0,f,c
  1855  00112A  C02E  F005         	movff	_head,??___funcs_on_exit+2
  1856  00112E  C02F  F006         	movff	_head+1,??___funcs_on_exit+3
  1857  001132  5003               	movf	??___funcs_on_exit^0,w,c
  1858  001134  2605               	addwf	(??___funcs_on_exit+2)^0,f,c
  1859  001136  5004               	movf	(??___funcs_on_exit+1)^0,w,c
  1860  001138  2206               	addwfc	(??___funcs_on_exit+3)^0,f,c
  1861  00113A  0E02               	movlw	2
  1862  00113C  2405               	addwf	(??___funcs_on_exit+2)^0,w,c
  1863  00113E  6ED9               	movwf	fsr2l,c
  1864  001140  0E00               	movlw	0
  1865  001142  2006               	addwfc	(??___funcs_on_exit+3)^0,w,c
  1866  001144  6EDA               	movwf	fsr2h,c
  1867  001146  CFDE F007          	movff	postinc2,___funcs_on_exit@func
  1868  00114A  CFDD F008          	movff	postdec2,___funcs_on_exit@func+1
  1869  00114E  C02C  F003         	movff	_slot,??___funcs_on_exit
  1870  001152  C02D  F004         	movff	_slot+1,??___funcs_on_exit+1
  1871  001156  90D8               	bcf	status,0,c
  1872  001158  3603               	rlcf	??___funcs_on_exit^0,f,c
  1873  00115A  3604               	rlcf	(??___funcs_on_exit+1)^0,f,c
  1874  00115C  C02E  F005         	movff	_head,??___funcs_on_exit+2
  1875  001160  C02F  F006         	movff	_head+1,??___funcs_on_exit+3
  1876  001164  5003               	movf	??___funcs_on_exit^0,w,c
  1877  001166  2605               	addwf	(??___funcs_on_exit+2)^0,f,c
  1878  001168  5004               	movf	(??___funcs_on_exit+1)^0,w,c
  1879  00116A  2206               	addwfc	(??___funcs_on_exit+3)^0,f,c
  1880  00116C  0E42               	movlw	66
  1881  00116E  2405               	addwf	(??___funcs_on_exit+2)^0,w,c
  1882  001170  6ED9               	movwf	fsr2l,c
  1883  001172  0E00               	movlw	0
  1884  001174  2006               	addwfc	(??___funcs_on_exit+3)^0,w,c
  1885  001176  6EDA               	movwf	fsr2h,c
  1886  001178  CFDE F009          	movff	postinc2,___funcs_on_exit@arg
  1887  00117C  CFDD F00A          	movff	postdec2,___funcs_on_exit@arg+1
  1888  001180  C009  F001         	movff	___funcs_on_exit@arg,call@p
  1889  001184  C00A  F002         	movff	___funcs_on_exit@arg+1,call@p+1
  1890  001188  D802               	call	i2u36_48
  1891  00118A  EFD0  F008         	goto	i2u36_49
  1892  00118E                     i2u36_48:
  1893  00118E  0005               	push	
  1894  001190  6EFA               	movwf	pclath,c
  1895  001192  5007               	movf	___funcs_on_exit@func^0,w,c
  1896  001194  6EFD               	movwf	tosl,c
  1897  001196  5008               	movf	(___funcs_on_exit@func+1)^0,w,c
  1898  001198  6EFE               	movwf	tosh,c
  1899  00119A  6AFF               	clrf	tosu,c
  1900  00119C  50FA               	movf	pclath,w,c
  1901  00119E  0012               	return		;indir
  1902  0011A0                     i2u36_49:
  1903  0011A0                     i2l1361:
  1904  0011A0  502C               	movf	_slot^0,w,c
  1905  0011A2  6E03               	movwf	??___funcs_on_exit^0,c
  1906  0011A4  502D               	movf	(_slot+1)^0,w,c
  1907  0011A6  6E04               	movwf	(??___funcs_on_exit+1)^0,c
  1908  0011A8  0E01               	movlw	1
  1909  0011AA  5E2C               	subwf	_slot^0,f,c
  1910  0011AC  0E00               	movlw	0
  1911  0011AE  5A2D               	subwfb	(_slot+1)^0,f,c
  1912  0011B0  BE04               	btfsc	(??___funcs_on_exit+1)^0,7,c
  1913  0011B2  EFE5  F008         	goto	i2u37_40
  1914  0011B6  5004               	movf	(??___funcs_on_exit+1)^0,w,c
  1915  0011B8  E106               	bnz	i2u37_41
  1916  0011BA  0403               	decf	??___funcs_on_exit^0,w,c
  1917  0011BC  B0D8               	btfsc	status,0,c
  1918  0011BE  EFE3  F008         	goto	i2u37_41
  1919  0011C2  EFE5  F008         	goto	i2u37_40
  1920  0011C6                     i2u37_41:
  1921  0011C6  EF8E  F008         	goto	i2l1357
  1922  0011CA                     i2u37_40:
  1923  0011CA  C02E  FFD9         	movff	_head,fsr2l
  1924  0011CE  C02F  FFDA         	movff	_head+1,fsr2h
  1925  0011D2  CFDE F02E          	movff	postinc2,_head
  1926  0011D6  CFDD F02F          	movff	postdec2,_head+1
  1927  0011DA  0E00               	movlw	0
  1928  0011DC  6E2D               	movwf	(_slot+1)^0,c
  1929  0011DE  0E20               	movlw	32
  1930  0011E0  6E2C               	movwf	_slot^0,c
  1931  0011E2                     i2l1367:
  1932  0011E2  502E               	movf	_head^0,w,c
  1933  0011E4  102F               	iorwf	(_head+1)^0,w,c
  1934  0011E6  A4D8               	btfss	status,2,c
  1935  0011E8  EFF8  F008         	goto	i2u38_41
  1936  0011EC  EFFA  F008         	goto	i2u38_40
  1937  0011F0                     i2u38_41:
  1938  0011F0  EFD0  F008         	goto	i2l1361
  1939  0011F4                     i2u38_40:
  1940  0011F4  0012               	return		;funcret
  1941  0011F6                     __end_of___funcs_on_exit:
  1942                           	opt callstack 0
  1943                           
  1944 ;; *************** function _call *****************
  1945 ;; Defined at:
  1946 ;;		line 45 in file "C:\Program Files (x86)\Microchip\xc8\v2.10\pic\sources\c99\common\atexit.c"
  1947 ;; Parameters:    Size  Location     Type
  1948 ;;  p               2    0[COMRAM] PTR void 
  1949 ;;		 -> RAM(3895), 
  1950 ;; Auto vars:     Size  Location     Type
  1951 ;;		None
  1952 ;; Return value:  Size  Location     Type
  1953 ;;                  1    wreg      void 
  1954 ;; Registers used:
  1955 ;;		None
  1956 ;; Tracked objects:
  1957 ;;		On entry : 0/0
  1958 ;;		On exit  : 0/0
  1959 ;;		Unchanged: 0/0
  1960 ;; Data sizes:     COMRAM   BANK0   BANK1   BANK2   BANK3   BANK4   BANK5   BANK6   BANK7   BANK8   BANK9  BANK10  BANK1
      +1  BANK12  BANK13  BANK14  BANK15
  1961 ;;      Params:         2       0       0       0       0       0       0       0       0       0       0       0       
      +0       0       0       0       0
  1962 ;;      Locals:         0       0       0       0       0       0       0       0       0       0       0       0       
      +0       0       0       0       0
  1963 ;;      Temps:          0       0       0       0       0       0       0       0       0       0       0       0       
      +0       0       0       0       0
  1964 ;;      Totals:         2       0       0       0       0       0       0       0       0       0       0       0       
      +0       0       0       0       0
  1965 ;;Total ram usage:        2 bytes
  1966 ;; Hardware stack levels used:    1
  1967 ;; This function calls:
  1968 ;;		Nothing
  1969 ;; This function is called by:
  1970 ;;		___funcs_on_exit
  1971 ;; This function uses a non-reentrant model
  1972 ;;
  1973                           
  1974                           	psect	text17
  1975  001682                     __ptext17:
  1976                           	opt callstack 0
  1977  001682                     _call:
  1978                           	opt callstack 24
  1979  001682  0012               	return		;funcret
  1980  001684                     __end_of_call:
  1981                           	opt callstack 0
  1982                           
  1983 ;; *************** function __Exit *****************
  1984 ;; Defined at:
  1985 ;;		line 7 in file "C:\Program Files (x86)\Microchip\xc8\v2.10\pic\sources\c99\common\_Exit.c"
  1986 ;; Parameters:    Size  Location     Type
  1987 ;;  ec              2    0[COMRAM] int 
  1988 ;; Auto vars:     Size  Location     Type
  1989 ;;		None
  1990 ;; Return value:  Size  Location     Type
  1991 ;;                  1    wreg      void 
  1992 ;; Registers used:
  1993 ;;		None
  1994 ;; Tracked objects:
  1995 ;;		On entry : 0/0
  1996 ;;		On exit  : 0/0
  1997 ;;		Unchanged: 0/0
  1998 ;; Data sizes:     COMRAM   BANK0   BANK1   BANK2   BANK3   BANK4   BANK5   BANK6   BANK7   BANK8   BANK9  BANK10  BANK1
      +1  BANK12  BANK13  BANK14  BANK15
  1999 ;;      Params:         2       0       0       0       0       0       0       0       0       0       0       0       
      +0       0       0       0       0
  2000 ;;      Locals:         0       0       0       0       0       0       0       0       0       0       0       0       
      +0       0       0       0       0
  2001 ;;      Temps:          0       0       0       0       0       0       0       0       0       0       0       0       
      +0       0       0       0       0
  2002 ;;      Totals:         2       0       0       0       0       0       0       0       0       0       0       0       
      +0       0       0       0       0
  2003 ;;Total ram usage:        2 bytes
  2004 ;; Hardware stack levels used:    1
  2005 ;; This function calls:
  2006 ;;		Nothing
  2007 ;; This function is called by:
  2008 ;;		_exit
  2009 ;; This function uses a non-reentrant model
  2010 ;;
  2011                           
  2012                           	psect	text18
  2013  001674                     __ptext18:
  2014                           	opt callstack 0
  2015  001674                     __Exit:
  2016                           	opt callstack 25
  2017  001674                     i2l839:
  2018  001674  EF3A  F00B         	goto	i2l839
  2019  001678  0012               	return		;funcret
  2020  00167A                     __end_of__Exit:
  2021                           	opt callstack 0
  2022                           
  2023 ;; *************** function _LCDWriteStr *****************
  2024 ;; Defined at:
  2025 ;;		line 163 in file "lcd.c"
  2026 ;; Parameters:    Size  Location     Type
  2027 ;;  string          2    6[COMRAM] PTR const unsigned char 
  2028 ;;		 -> LCDWriteInt@string(3), LCDWriteFloat@string(5), LCDWriteHexa@string(3), STR_2(14), 
  2029 ;;		 -> STR_1(14), 
  2030 ;; Auto vars:     Size  Location     Type
  2031 ;;  i               1   10[COMRAM] unsigned char 
  2032 ;; Return value:  Size  Location     Type
  2033 ;;                  1    wreg      void 
  2034 ;; Registers used:
  2035 ;;		wreg, fsr0l, fsr0h, status,2, status,0, tblptrl, tblptrh, tblptru, cstack
  2036 ;; Tracked objects:
  2037 ;;		On entry : 0/0
  2038 ;;		On exit  : 0/0
  2039 ;;		Unchanged: 0/0
  2040 ;; Data sizes:     COMRAM   BANK0   BANK1   BANK2   BANK3   BANK4   BANK5   BANK6   BANK7   BANK8   BANK9  BANK10  BANK1
      +1  BANK12  BANK13  BANK14  BANK15
  2041 ;;      Params:         2       0       0       0       0       0       0       0       0       0       0       0       
      +0       0       0       0       0
  2042 ;;      Locals:         1       0       0       0       0       0       0       0       0       0       0       0       
      +0       0       0       0       0
  2043 ;;      Temps:          2       0       0       0       0       0       0       0       0       0       0       0       
      +0       0       0       0       0
  2044 ;;      Totals:         5       0       0       0       0       0       0       0       0       0       0       0       
      +0       0       0       0       0
  2045 ;;Total ram usage:        5 bytes
  2046 ;; Hardware stack levels used:    1
  2047 ;; Hardware stack levels required when called:    3
  2048 ;; This function calls:
  2049 ;;		i2_LCDPutChar
  2050 ;; This function is called by:
  2051 ;;		_SerialRxPinInterrupt
  2052 ;;		_LCDWriteHexa
  2053 ;;		_LCDWriteFloat
  2054 ;;		_LCDWriteInt
  2055 ;; This function uses a non-reentrant model
  2056 ;;
  2057                           
  2058                           	psect	text19
  2059  00129A                     __ptext19:
  2060                           	opt callstack 0
  2061  00129A                     _LCDWriteStr:
  2062                           	opt callstack 23
  2063  00129A                     
  2064                           ;lcd.c: 163: void LCDWriteStr(const char *string);lcd.c: 164: {;lcd.c: 165:   UINT8_T i 
      +                          = 0;
  2065  00129A  0E00               	movlw	0
  2066  00129C  6E0B               	movwf	LCDWriteStr@i^0,c
  2067                           
  2068                           ;lcd.c: 167:   while (string[i])
  2069  00129E  EF6B  F009         	goto	i2l1429
  2070  0012A2                     i2l1425:
  2071                           
  2072                           ;lcd.c: 168:     LCDPutChar(string[i++]);
  2073  0012A2  500B               	movf	LCDWriteStr@i^0,w,c
  2074  0012A4  2407               	addwf	LCDWriteStr@string^0,w,c
  2075  0012A6  6E09               	movwf	??_LCDWriteStr^0,c
  2076  0012A8  0E00               	movlw	0
  2077  0012AA  2008               	addwfc	(LCDWriteStr@string+1)^0,w,c
  2078  0012AC  6E0A               	movwf	(??_LCDWriteStr+1)^0,c
  2079  0012AE  C009  FFF6         	movff	??_LCDWriteStr,tblptrl
  2080  0012B2  C00A  FFF7         	movff	??_LCDWriteStr+1,tblptrh
  2081  0012B6  0E00               	movlw	low (__smallconst shr (0+16))
  2082  0012B8  6EF8               	movwf	tblptru,c
  2083  0012BA  0E0F               	movlw	(high __ramtop+-1)
  2084  0012BC  64F7               	cpfsgt	tblptrh,c
  2085  0012BE  D003               	bra	i2u42_47
  2086  0012C0  0008               	tblrd		*
  2087  0012C2  50F5               	movf	tablat,w,c
  2088  0012C4  D005               	bra	i2u42_40
  2089  0012C6                     i2u42_47:
  2090  0012C6  CFF6 FFE9          	movff	tblptrl,fsr0l
  2091  0012CA  CFF7 FFEA          	movff	tblptrh,fsr0h
  2092  0012CE  50EF               	movf	indf0,w,c
  2093  0012D0                     i2u42_40:
  2094  0012D0  EC31  F00B         	call	i2_LCDPutChar
  2095  0012D4  2A0B               	incf	LCDWriteStr@i^0,f,c
  2096  0012D6                     i2l1429:
  2097                           
  2098                           ;lcd.c: 167:   while (string[i])
  2099  0012D6  500B               	movf	LCDWriteStr@i^0,w,c
  2100  0012D8  2407               	addwf	LCDWriteStr@string^0,w,c
  2101  0012DA  6E09               	movwf	??_LCDWriteStr^0,c
  2102  0012DC  0E00               	movlw	0
  2103  0012DE  2008               	addwfc	(LCDWriteStr@string+1)^0,w,c
  2104  0012E0  6E0A               	movwf	(??_LCDWriteStr+1)^0,c
  2105  0012E2  C009  FFF6         	movff	??_LCDWriteStr,tblptrl
  2106  0012E6  C00A  FFF7         	movff	??_LCDWriteStr+1,tblptrh
  2107  0012EA  0E00               	movlw	low (__smallconst shr (0+16))
  2108  0012EC  6EF8               	movwf	tblptru,c
  2109  0012EE  0E0F               	movlw	(high __ramtop+-1)
  2110  0012F0  64F7               	cpfsgt	tblptrh,c
  2111  0012F2  D003               	bra	i2u43_47
  2112  0012F4  0008               	tblrd		*
  2113  0012F6  50F5               	movf	tablat,w,c
  2114  0012F8  D005               	bra	i2u43_40
  2115  0012FA                     i2u43_47:
  2116  0012FA  CFF6 FFE9          	movff	tblptrl,fsr0l
  2117  0012FE  CFF7 FFEA          	movff	tblptrh,fsr0h
  2118  001302  50EF               	movf	indf0,w,c
  2119  001304                     i2u43_40:
  2120  001304  0900               	iorlw	0
  2121  001306  A4D8               	btfss	status,2,c
  2122  001308  EF88  F009         	goto	i2u44_41
  2123  00130C  EF8A  F009         	goto	i2u44_40
  2124  001310                     i2u44_41:
  2125  001310  EF51  F009         	goto	i2l1425
  2126  001314                     i2u44_40:
  2127  001314  0012               	return		;funcret
  2128  001316                     __end_of_LCDWriteStr:
  2129                           	opt callstack 0
  2130                           
  2131 ;; *************** function i2_LCDPutChar *****************
  2132 ;; Defined at:
  2133 ;;		line 150 in file "lcd.c"
  2134 ;; Parameters:    Size  Location     Type
  2135 ;;  data            1    wreg     unsigned char 
  2136 ;; Auto vars:     Size  Location     Type
  2137 ;;  data            1    5[COMRAM] unsigned char 
  2138 ;; Return value:  Size  Location     Type
  2139 ;;                  1    wreg      void 
  2140 ;; Registers used:
  2141 ;;		wreg, status,2, status,0, cstack
  2142 ;; Tracked objects:
  2143 ;;		On entry : 0/0
  2144 ;;		On exit  : 0/0
  2145 ;;		Unchanged: 0/0
  2146 ;; Data sizes:     COMRAM   BANK0   BANK1   BANK2   BANK3   BANK4   BANK5   BANK6   BANK7   BANK8   BANK9  BANK10  BANK1
      +1  BANK12  BANK13  BANK14  BANK15
  2147 ;;      Params:         0       0       0       0       0       0       0       0       0       0       0       0       
      +0       0       0       0       0
  2148 ;;      Locals:         1       0       0       0       0       0       0       0       0       0       0       0       
      +0       0       0       0       0
  2149 ;;      Temps:          0       0       0       0       0       0       0       0       0       0       0       0       
      +0       0       0       0       0
  2150 ;;      Totals:         1       0       0       0       0       0       0       0       0       0       0       0       
      +0       0       0       0       0
  2151 ;;Total ram usage:        1 bytes
  2152 ;; Hardware stack levels used:    1
  2153 ;; Hardware stack levels required when called:    2
  2154 ;; This function calls:
  2155 ;;		i2_WaitLCD
  2156 ;;		i2_WriteByte
  2157 ;; This function is called by:
  2158 ;;		_SerialRxPinInterrupt
  2159 ;;		_LCDWriteStr
  2160 ;; This function uses a non-reentrant model
  2161 ;;
  2162                           
  2163                           	psect	text20
  2164  001662                     __ptext20:
  2165                           	opt callstack 0
  2166  001662                     i2_LCDPutChar:
  2167                           	opt callstack 24
  2168                           
  2169                           ;incstack = 0
  2170                           ;i2LCDPutChar@data stored from wreg
  2171  001662  6E06               	movwf	i2LCDPutChar@data^0,c
  2172  001664                     
  2173                           ;lcd.c: 150: void LCDPutChar(UINT8_T data);lcd.c: 151: {;lcd.c: 152:     WriteByte(0, da
      +                          ta);
  2174  001664  C006  F004         	movff	i2LCDPutChar@data,i2WriteByte@data
  2175  001668  0E00               	movlw	0
  2176  00166A  EC07  F00B         	call	i2_WriteByte
  2177                           
  2178                           ;lcd.c: 153:     WaitLCD();
  2179  00166E  ECEC  F00A         	call	i2_WaitLCD	;wreg free
  2180  001672  0012               	return		;funcret
  2181  001674                     __end_ofi2_LCDPutChar:
  2182                           	opt callstack 0
  2183                           
  2184 ;; *************** function i2_WriteByte *****************
  2185 ;; Defined at:
  2186 ;;		line 88 in file "lcd.c"
  2187 ;; Parameters:    Size  Location     Type
  2188 ;;  cmd             1    wreg     unsigned char 
  2189 ;;  data            1    3[COMRAM] unsigned char 
  2190 ;; Auto vars:     Size  Location     Type
  2191 ;;  cmd             1    4[COMRAM] unsigned char 
  2192 ;; Return value:  Size  Location     Type
  2193 ;;                  1    wreg      void 
  2194 ;; Registers used:
  2195 ;;		wreg, status,2, status,0, cstack
  2196 ;; Tracked objects:
  2197 ;;		On entry : 0/0
  2198 ;;		On exit  : 0/0
  2199 ;;		Unchanged: 0/0
  2200 ;; Data sizes:     COMRAM   BANK0   BANK1   BANK2   BANK3   BANK4   BANK5   BANK6   BANK7   BANK8   BANK9  BANK10  BANK1
      +1  BANK12  BANK13  BANK14  BANK15
  2201 ;;      Params:         1       0       0       0       0       0       0       0       0       0       0       0       
      +0       0       0       0       0
  2202 ;;      Locals:         1       0       0       0       0       0       0       0       0       0       0       0       
      +0       0       0       0       0
  2203 ;;      Temps:          0       0       0       0       0       0       0       0       0       0       0       0       
      +0       0       0       0       0
  2204 ;;      Totals:         2       0       0       0       0       0       0       0       0       0       0       0       
      +0       0       0       0       0
  2205 ;;Total ram usage:        2 bytes
  2206 ;; Hardware stack levels used:    1
  2207 ;; Hardware stack levels required when called:    1
  2208 ;; This function calls:
  2209 ;;		i2_WriteNibble
  2210 ;; This function is called by:
  2211 ;;		i2_LCDGoto
  2212 ;;		i2_LCDPutChar
  2213 ;; This function uses a non-reentrant model
  2214 ;;
  2215                           
  2216                           	psect	text21
  2217  00160E                     __ptext21:
  2218                           	opt callstack 0
  2219  00160E                     i2_WriteByte:
  2220                           	opt callstack 24
  2221                           
  2222                           ;incstack = 0
  2223                           ;i2WriteByte@cmd stored from wreg
  2224  00160E  6E05               	movwf	i2WriteByte@cmd^0,c
  2225  001610                     
  2226                           ;lcd.c: 88: void WriteByte(UINT8_T cmd, UINT8_T data);lcd.c: 89: {;lcd.c: 90:     WriteN
      +                          ibble(cmd, data >> 4);
  2227  001610  3804               	swapf	i2WriteByte@data^0,w,c
  2228  001612  0B0F               	andlw	15
  2229  001614  6E01               	movwf	i2WriteNibble@data^0,c
  2230  001616  5005               	movf	i2WriteByte@cmd^0,w,c
  2231  001618  EC79  F00A         	call	i2_WriteNibble
  2232                           
  2233                           ;lcd.c: 91:     WriteNibble(cmd, data);
  2234  00161C  C004  F001         	movff	i2WriteByte@data,i2WriteNibble@data
  2235  001620  5005               	movf	i2WriteByte@cmd^0,w,c
  2236  001622  EC79  F00A         	call	i2_WriteNibble
  2237  001626  0012               	return		;funcret
  2238  001628                     __end_ofi2_WriteByte:
  2239                           	opt callstack 0
  2240                           
  2241 ;; *************** function i2_WriteNibble *****************
  2242 ;; Defined at:
  2243 ;;		line 71 in file "lcd.c"
  2244 ;; Parameters:    Size  Location     Type
  2245 ;;  cmd             1    wreg     unsigned char 
  2246 ;;  data            1    0[COMRAM] unsigned char 
  2247 ;; Auto vars:     Size  Location     Type
  2248 ;;  cmd             1    2[COMRAM] unsigned char 
  2249 ;; Return value:  Size  Location     Type
  2250 ;;                  1    wreg      void 
  2251 ;; Registers used:
  2252 ;;		wreg, status,2, status,0
  2253 ;; Tracked objects:
  2254 ;;		On entry : 0/0
  2255 ;;		On exit  : 0/0
  2256 ;;		Unchanged: 0/0
  2257 ;; Data sizes:     COMRAM   BANK0   BANK1   BANK2   BANK3   BANK4   BANK5   BANK6   BANK7   BANK8   BANK9  BANK10  BANK1
      +1  BANK12  BANK13  BANK14  BANK15
  2258 ;;      Params:         1       0       0       0       0       0       0       0       0       0       0       0       
      +0       0       0       0       0
  2259 ;;      Locals:         1       0       0       0       0       0       0       0       0       0       0       0       
      +0       0       0       0       0
  2260 ;;      Temps:          1       0       0       0       0       0       0       0       0       0       0       0       
      +0       0       0       0       0
  2261 ;;      Totals:         3       0       0       0       0       0       0       0       0       0       0       0       
      +0       0       0       0       0
  2262 ;;Total ram usage:        3 bytes
  2263 ;; Hardware stack levels used:    1
  2264 ;; This function calls:
  2265 ;;		Nothing
  2266 ;; This function is called by:
  2267 ;;		i2_WriteByte
  2268 ;; This function uses a non-reentrant model
  2269 ;;
  2270                           
  2271                           	psect	text22
  2272  0014F2                     __ptext22:
  2273                           	opt callstack 0
  2274  0014F2                     i2_WriteNibble:
  2275                           	opt callstack 24
  2276                           
  2277                           ;incstack = 0
  2278                           ;i2WriteNibble@cmd stored from wreg
  2279  0014F2  6E03               	movwf	i2WriteNibble@cmd^0,c
  2280  0014F4                     
  2281                           ;lcd.c: 71: void WriteNibble(UINT8_T cmd, UINT8_T data);lcd.c: 72: {;lcd.c: 73:     LATD
      +                          bits.LATD4 = (cmd ? 0 : 1);
  2282  0014F4  5003               	movf	i2WriteNibble@cmd^0,w,c
  2283  0014F6  B4D8               	btfsc	status,2,c
  2284  0014F8  EF80  F00A         	goto	i2u27_41
  2285  0014FC  EF84  F00A         	goto	i2u27_40
  2286  001500                     i2u27_41:
  2287  001500  6A02               	clrf	??i2_WriteNibble^0,c
  2288  001502  2A02               	incf	??i2_WriteNibble^0,f,c
  2289  001504  EF85  F00A         	goto	i2u28_48
  2290  001508                     i2u27_40:
  2291  001508  6A02               	clrf	??i2_WriteNibble^0,c
  2292  00150A                     i2u28_48:
  2293  00150A  3A02               	swapf	??i2_WriteNibble^0,f,c
  2294  00150C  508C               	movf	140,w,c	;volatile
  2295  00150E  1802               	xorwf	??i2_WriteNibble^0,w,c
  2296  001510  0BEF               	andlw	-17
  2297  001512  1802               	xorwf	??i2_WriteNibble^0,w,c
  2298  001514  6E8C               	movwf	140,c	;volatile
  2299  001516                     
  2300                           ;lcd.c: 74:     LATDbits.LATD5 = 0;
  2301  001516  9A8C               	bcf	140,5,c	;volatile
  2302  001518                     
  2303                           ;lcd.c: 75:     LATDbits.LATD6 = 1;
  2304  001518  8C8C               	bsf	140,6,c	;volatile
  2305  00151A                     
  2306                           ;lcd.c: 77:     LATDbits.LATD0 = LATDbits.LATD1 = LATDbits.LATD2 = LATDbits.LATD3 = 0;
  2307  00151A  968C               	bcf	140,3,c	;volatile
  2308  00151C  948C               	bcf	140,2,c	;volatile
  2309  00151E  928C               	bcf	140,1,c	;volatile
  2310  001520  908C               	bcf	140,0,c	;volatile
  2311  001522                     
  2312                           ;lcd.c: 78:     __nop();
  2313  001522  F000               	nop	
  2314  001524                     
  2315                           ;lcd.c: 79:     __nop();
  2316  001524  F000               	nop	
  2317                           
  2318                           ;lcd.c: 81:     LATD = (LATD & 0xF0) | (data & 0x0F);
  2319  001526  C001  F002         	movff	i2WriteNibble@data,??i2_WriteNibble
  2320  00152A  0E0F               	movlw	15
  2321  00152C  1602               	andwf	??i2_WriteNibble^0,f,c
  2322  00152E  508C               	movf	140,w,c	;volatile
  2323  001530  0BF0               	andlw	240
  2324  001532  1002               	iorwf	??i2_WriteNibble^0,w,c
  2325  001534  6E8C               	movwf	140,c	;volatile
  2326  001536                     
  2327                           ;lcd.c: 82:     __nop();
  2328  001536  F000               	nop	
  2329  001538                     
  2330                           ;lcd.c: 83:     __nop();
  2331  001538  F000               	nop	
  2332  00153A                     
  2333                           ;lcd.c: 85:     LATDbits.LATD6 = 0;
  2334  00153A  9C8C               	bcf	140,6,c	;volatile
  2335  00153C  0012               	return		;funcret
  2336  00153E                     __end_ofi2_WriteNibble:
  2337                           	opt callstack 0
  2338                           
  2339 ;; *************** function i2_WaitLCD *****************
  2340 ;; Defined at:
  2341 ;;		line 57 in file "lcd.c"
  2342 ;; Parameters:    Size  Location     Type
  2343 ;;		None
  2344 ;; Auto vars:     Size  Location     Type
  2345 ;;  WaitLCD         1    1[COMRAM] unsigned char 
  2346 ;; Return value:  Size  Location     Type
  2347 ;;                  1    wreg      void 
  2348 ;; Registers used:
  2349 ;;		wreg, status,2, status,0, cstack
  2350 ;; Tracked objects:
  2351 ;;		On entry : 0/0
  2352 ;;		On exit  : 0/0
  2353 ;;		Unchanged: 0/0
  2354 ;; Data sizes:     COMRAM   BANK0   BANK1   BANK2   BANK3   BANK4   BANK5   BANK6   BANK7   BANK8   BANK9  BANK10  BANK1
      +1  BANK12  BANK13  BANK14  BANK15
  2355 ;;      Params:         0       0       0       0       0       0       0       0       0       0       0       0       
      +0       0       0       0       0
  2356 ;;      Locals:         1       0       0       0       0       0       0       0       0       0       0       0       
      +0       0       0       0       0
  2357 ;;      Temps:          0       0       0       0       0       0       0       0       0       0       0       0       
      +0       0       0       0       0
  2358 ;;      Totals:         1       0       0       0       0       0       0       0       0       0       0       0       
      +0       0       0       0       0
  2359 ;;Total ram usage:        1 bytes
  2360 ;; Hardware stack levels used:    1
  2361 ;; Hardware stack levels required when called:    1
  2362 ;; This function calls:
  2363 ;;		i2_ReadByte
  2364 ;; This function is called by:
  2365 ;;		i2_LCDGoto
  2366 ;;		i2_LCDPutChar
  2367 ;; This function uses a non-reentrant model
  2368 ;;
  2369                           
  2370                           	psect	text23
  2371  0015D8                     __ptext23:
  2372                           	opt callstack 0
  2373  0015D8                     i2_WaitLCD:
  2374                           	opt callstack 24
  2375  0015D8                     
  2376                           ;lcd.c: 59:     UINT8_T status;;lcd.c: 61:     LATDbits.LATD4 = 0;
  2377  0015D8  988C               	bcf	140,4,c	;volatile
  2378                           
  2379                           ;lcd.c: 62:     LATDbits.LATD5 = 1;
  2380  0015DA  8A8C               	bsf	140,5,c	;volatile
  2381  0015DC                     i2l1319:
  2382                           
  2383                           ;lcd.c: 65:         status = ReadByte();
  2384  0015DC  ECB7  F00A         	call	i2_ReadByte	;wreg free
  2385  0015E0  6E02               	movwf	i2WaitLCD@status^0,c
  2386  0015E2                     
  2387                           ;lcd.c: 66:     } while (status & 0x80);
  2388  0015E2  BE02               	btfsc	i2WaitLCD@status^0,7,c
  2389  0015E4  EFF6  F00A         	goto	i2u31_41
  2390  0015E8  EFF8  F00A         	goto	i2u31_40
  2391  0015EC                     i2u31_41:
  2392  0015EC  EFEE  F00A         	goto	i2l1319
  2393  0015F0                     i2u31_40:
  2394  0015F0                     
  2395                           ;lcd.c: 68:     LATDbits.LATD5 = 0;
  2396  0015F0  9A8C               	bcf	140,5,c	;volatile
  2397  0015F2  0012               	return		;funcret
  2398  0015F4                     __end_ofi2_WaitLCD:
  2399                           	opt callstack 0
  2400                           
  2401 ;; *************** function i2_ReadByte *****************
  2402 ;; Defined at:
  2403 ;;		line 26 in file "lcd.c"
  2404 ;; Parameters:    Size  Location     Type
  2405 ;;		None
  2406 ;; Auto vars:     Size  Location     Type
  2407 ;;  ReadByte        1    0[COMRAM] unsigned char 
  2408 ;; Return value:  Size  Location     Type
  2409 ;;                  1    wreg      unsigned char 
  2410 ;; Registers used:
  2411 ;;		wreg, status,2, status,0
  2412 ;; Tracked objects:
  2413 ;;		On entry : 0/0
  2414 ;;		On exit  : 0/0
  2415 ;;		Unchanged: 0/0
  2416 ;; Data sizes:     COMRAM   BANK0   BANK1   BANK2   BANK3   BANK4   BANK5   BANK6   BANK7   BANK8   BANK9  BANK10  BANK1
      +1  BANK12  BANK13  BANK14  BANK15
  2417 ;;      Params:         0       0       0       0       0       0       0       0       0       0       0       0       
      +0       0       0       0       0
  2418 ;;      Locals:         1       0       0       0       0       0       0       0       0       0       0       0       
      +0       0       0       0       0
  2419 ;;      Temps:          0       0       0       0       0       0       0       0       0       0       0       0       
      +0       0       0       0       0
  2420 ;;      Totals:         1       0       0       0       0       0       0       0       0       0       0       0       
      +0       0       0       0       0
  2421 ;;Total ram usage:        1 bytes
  2422 ;; Hardware stack levels used:    1
  2423 ;; This function calls:
  2424 ;;		Nothing
  2425 ;; This function is called by:
  2426 ;;		i2_WaitLCD
  2427 ;; This function uses a non-reentrant model
  2428 ;;
  2429                           
  2430                           	psect	text24
  2431  00156E                     __ptext24:
  2432                           	opt callstack 0
  2433  00156E                     i2_ReadByte:
  2434                           	opt callstack 24
  2435  00156E                     
  2436                           ;lcd.c: 28:     UINT8_T status;;lcd.c: 30:     TRISDbits.TRISD0 = 1;
  2437  00156E  8095               	bsf	149,0,c	;volatile
  2438                           
  2439                           ;lcd.c: 31:     TRISDbits.TRISD1 = 1;
  2440  001570  8295               	bsf	149,1,c	;volatile
  2441                           
  2442                           ;lcd.c: 32:     TRISDbits.TRISD2 = 1;
  2443  001572  8495               	bsf	149,2,c	;volatile
  2444                           
  2445                           ;lcd.c: 33:     TRISDbits.TRISD3 = 1;
  2446  001574  8695               	bsf	149,3,c	;volatile
  2447                           
  2448                           ;lcd.c: 35:     LATDbits.LATD6 = 1;
  2449  001576  8C8C               	bsf	140,6,c	;volatile
  2450                           
  2451                           ;lcd.c: 36:     __nop();
  2452  001578  F000               	nop	
  2453                           
  2454                           ;lcd.c: 37:     __nop();
  2455  00157A  F000               	nop	
  2456  00157C                     
  2457                           ;lcd.c: 39:     status = PORTD << 4;
  2458  00157C  3883               	swapf	131,w,c	;volatile
  2459  00157E  0BF0               	andlw	240
  2460  001580  6E01               	movwf	i2ReadByte@status^0,c
  2461  001582                     
  2462                           ;lcd.c: 40:     LATDbits.LATD6 = 0;
  2463  001582  9C8C               	bcf	140,6,c	;volatile
  2464  001584                     
  2465                           ;lcd.c: 42:     LATDbits.LATD6 = 1;
  2466  001584  8C8C               	bsf	140,6,c	;volatile
  2467  001586                     
  2468                           ;lcd.c: 43:     __nop();
  2469  001586  F000               	nop	
  2470  001588                     
  2471                           ;lcd.c: 44:     __nop();
  2472  001588  F000               	nop	
  2473                           
  2474                           ;lcd.c: 46:     status |= PORTD & 0x0F;
  2475  00158A  5083               	movf	131,w,c	;volatile
  2476  00158C  0B0F               	andlw	15
  2477  00158E  1201               	iorwf	i2ReadByte@status^0,f,c
  2478  001590                     
  2479                           ;lcd.c: 47:     LATDbits.LATD6 = 0;
  2480  001590  9C8C               	bcf	140,6,c	;volatile
  2481  001592                     
  2482                           ;lcd.c: 49:     TRISDbits.TRISD0 = 0;
  2483  001592  9095               	bcf	149,0,c	;volatile
  2484  001594                     
  2485                           ;lcd.c: 50:     TRISDbits.TRISD1 = 0;
  2486  001594  9295               	bcf	149,1,c	;volatile
  2487  001596                     
  2488                           ;lcd.c: 51:     TRISDbits.TRISD2 = 0;
  2489  001596  9495               	bcf	149,2,c	;volatile
  2490  001598                     
  2491                           ;lcd.c: 52:     TRISDbits.TRISD3 = 0;
  2492  001598  9695               	bcf	149,3,c	;volatile
  2493  00159A                     
  2494                           ;lcd.c: 54:     return(status);
  2495  00159A  5001               	movf	i2ReadByte@status^0,w,c
  2496  00159C  0012               	return		;funcret
  2497  00159E                     __end_ofi2_ReadByte:
  2498                           	opt callstack 0
  2499                           
  2500                           	psect	text25
  2501  000000                     __ptext25:
  2502                           	opt callstack 0
  2503  000000                     
  2504                           	psect	rparam
  2505  0000                     
  2506                           	psect	temp
  2507  000030                     btemp:
  2508                           	opt callstack 0
  2509  000030                     	ds	1
  2510  0000                     int$flags	set	btemp
  2511  0000                     wtemp8	set	btemp+1
  2512  0000                     ttemp5	set	btemp+1
  2513  0000                     ttemp6	set	btemp+4
  2514  0000                     ttemp7	set	btemp+8
  2515                           tosu	equ	0xFFF
  2516                           tosh	equ	0xFFE
  2517                           tosl	equ	0xFFD
  2518                           stkptr	equ	0xFFC
  2519                           pclatu	equ	0xFFB
  2520                           pclath	equ	0xFFA
  2521                           pcl	equ	0xFF9
  2522                           tblptru	equ	0xFF8
  2523                           tblptrh	equ	0xFF7
  2524                           tblptrl	equ	0xFF6
  2525                           tablat	equ	0xFF5
  2526                           prodh	equ	0xFF4
  2527                           prodl	equ	0xFF3
  2528                           indf0	equ	0xFEF
  2529                           postinc0	equ	0xFEE
  2530                           postdec0	equ	0xFED
  2531                           preinc0	equ	0xFEC
  2532                           plusw0	equ	0xFEB
  2533                           fsr0h	equ	0xFEA
  2534                           fsr0l	equ	0xFE9
  2535                           wreg	equ	0xFE8
  2536                           indf1	equ	0xFE7
  2537                           postinc1	equ	0xFE6
  2538                           postdec1	equ	0xFE5
  2539                           preinc1	equ	0xFE4
  2540                           plusw1	equ	0xFE3
  2541                           fsr1h	equ	0xFE2
  2542                           fsr1l	equ	0xFE1
  2543                           bsr	equ	0xFE0
  2544                           indf2	equ	0xFDF
  2545                           postinc2	equ	0xFDE
  2546                           postdec2	equ	0xFDD
  2547                           preinc2	equ	0xFDC
  2548                           plusw2	equ	0xFDB
  2549                           fsr2h	equ	0xFDA
  2550                           fsr2l	equ	0xFD9
  2551                           status	equ	0xFD8


Data Sizes:
    Strings     45
    Constant    0
    Data        0
    BSS         134
    Persistent  0
    Stack       0

Auto Spaces:
    Space          Size  Autos    Used
    COMRAM           94     43      47
    BANK0           160      0       0
    BANK1           256      0     130
    BANK2           256      0       0
    BANK3           256      0       0
    BANK4           256      0       0
    BANK5           256      0       0
    BANK6           256      0       0
    BANK7           256      0       0
    BANK8           256      0       0
    BANK9           256      0       0
    BANK10          256      0       0
    BANK11          256      0       0
    BANK12          256      0       0
    BANK13          256      0       0
    BANK14          256      0       0
    BANK15           56      0       0

Pointer List with Targets:

    S1065$1$0	PTR void  size(2) Largest target is 3895
		 -> RAM(DATA[3895]), 

    func$0	PTR void  size(2) Largest target is 3895
		 -> RAM(DATA[3895]), 

    func$0	PTR void  size(2) Largest target is 3895
		 -> RAM(DATA[3895]), 

    call@p	PTR void  size(2) Largest target is 3895
		 -> RAM(DATA[3895]), 

    __funcs_on_exit@arg	PTR void  size(2) Largest target is 3895
		 -> RAM(DATA[3895]), 

    head.a	PTR void [32] size(2) Largest target is 3895
		 -> RAM(DATA[3895]), 

    head.f	PTR FTN(PTR void ,)void [32] size(2) Largest target is 1
		 -> call(), 

    head.next	PTR struct fl size(2) Largest target is 0

    head	PTR struct fl size(2) Largest target is 163
		 -> builtin(BANK1[130]), NULL(NULL[0]), 

    __funcs_on_exit@func	PTR FTN(PTR void ,)void  size(2) Largest target is 1
		 -> call(), 

    S1065fl$a	PTR void [32] size(2) Largest target is 3895
		 -> RAM(DATA[3895]), 

    builtin.a	PTR void [32] size(2) Largest target is 3895
		 -> RAM(DATA[3895]), 

    S1065fl$f	PTR FTN(PTR void ,)void [32] size(2) Largest target is 1
		 -> call(), 

    builtin.f	PTR FTN(PTR void ,)void [32] size(2) Largest target is 1
		 -> call(), 

    S1065fl$next	PTR struct fl size(2) Largest target is 0

    builtin.next	PTR struct fl size(2) Largest target is 0

    LCDWriteStr@string	PTR const unsigned char  size(2) Largest target is 14
		 -> LCDWriteInt@string(COMRAM[3]), LCDWriteFloat@string(COMRAM[5]), LCDWriteHexa@string(COMRAM[3]), STR_2(CODE[14]), 
		 -> STR_1(CODE[14]), 


Critical Paths under _main in COMRAM

    _main->_UARTInit
    _UARTInit->___lldiv
    _LCDPutChar->_WriteByte
    _LCDInit->_WriteNibble
    _LCDGoto->_WriteByte
    _WriteByte->_WriteNibble
    _WaitLCD->_ReadByte

Critical Paths under _SerialRxPinInterrupt in COMRAM

    _SerialRxPinInterrupt->_exit
    i2_LCDGoto->i2_WriteByte
    _exit->___funcs_on_exit
    ___funcs_on_exit->_call
    _LCDWriteStr->i2_LCDPutChar
    i2_LCDPutChar->i2_WriteByte
    i2_WriteByte->i2_WriteNibble
    i2_WaitLCD->i2_ReadByte

Critical Paths under _main in BANK0

    None.

Critical Paths under _SerialRxPinInterrupt in BANK0

    None.

Critical Paths under _main in BANK1

    None.

Critical Paths under _SerialRxPinInterrupt in BANK1

    None.

Critical Paths under _main in BANK2

    None.

Critical Paths under _SerialRxPinInterrupt in BANK2

    None.

Critical Paths under _main in BANK3

    None.

Critical Paths under _SerialRxPinInterrupt in BANK3

    None.

Critical Paths under _main in BANK4

    None.

Critical Paths under _SerialRxPinInterrupt in BANK4

    None.

Critical Paths under _main in BANK5

    None.

Critical Paths under _SerialRxPinInterrupt in BANK5

    None.

Critical Paths under _main in BANK6

    None.

Critical Paths under _SerialRxPinInterrupt in BANK6

    None.

Critical Paths under _main in BANK7

    None.

Critical Paths under _SerialRxPinInterrupt in BANK7

    None.

Critical Paths under _main in BANK8

    None.

Critical Paths under _SerialRxPinInterrupt in BANK8

    None.

Critical Paths under _main in BANK9

    None.

Critical Paths under _SerialRxPinInterrupt in BANK9

    None.

Critical Paths under _main in BANK10

    None.

Critical Paths under _SerialRxPinInterrupt in BANK10

    None.

Critical Paths under _main in BANK11

    None.

Critical Paths under _SerialRxPinInterrupt in BANK11

    None.

Critical Paths under _main in BANK12

    None.

Critical Paths under _SerialRxPinInterrupt in BANK12

    None.

Critical Paths under _main in BANK13

    None.

Critical Paths under _SerialRxPinInterrupt in BANK13

    None.

Critical Paths under _main in BANK14

    None.

Critical Paths under _SerialRxPinInterrupt in BANK14

    None.

Critical Paths under _main in BANK15

    None.

Critical Paths under _SerialRxPinInterrupt in BANK15

    None.

Call Graph Tables:

 ---------------------------------------------------------------------------------
 (Depth) Function   	        Calls       Base Space   Used Autos Params    Refs
 ---------------------------------------------------------------------------------
 (0) _main                                                 4     4      0    5739
                                             39 COMRAM     4     4      0
                            _LCDGoto
                            _LCDInit
                         _LCDPutChar
                           _UARTInit
                       _UARTReadByte
                      _UARTWriteByte
 ---------------------------------------------------------------------------------
 (1) _UARTWriteByte                                        1     1      0      15
                                             22 COMRAM     1     1      0
 ---------------------------------------------------------------------------------
 (1) _UARTReadByte                                         0     0      0       0
 ---------------------------------------------------------------------------------
 (1) _UARTInit                                             4     2      2     412
                                             35 COMRAM     4     2      2
                            ___lldiv
 ---------------------------------------------------------------------------------
 (2) ___lldiv                                             13     5      8     314
                                             22 COMRAM    13     5      8
 ---------------------------------------------------------------------------------
 (1) _LCDPutChar                                           1     1      0    1721
                                             27 COMRAM     1     1      0
                            _WaitLCD
                          _WriteByte
 ---------------------------------------------------------------------------------
 (1) _LCDInit                                              1     1      0    1307
                                             25 COMRAM     1     1      0
                            _WaitLCD
                        _WriteNibble
 ---------------------------------------------------------------------------------
 (1) _LCDGoto                                              6     5      1    2237
                                             27 COMRAM     6     5      1
                            _WaitLCD
                          _WriteByte
 ---------------------------------------------------------------------------------
 (2) _WriteByte                                            2     1      1    1652
                                             25 COMRAM     2     1      1
                        _WriteNibble
 ---------------------------------------------------------------------------------
 (3) _WriteNibble                                          3     2      1    1260
                                             22 COMRAM     3     2      1
 ---------------------------------------------------------------------------------
 (2) _WaitLCD                                              1     1      0      47
                                             23 COMRAM     1     1      0
                           _ReadByte
 ---------------------------------------------------------------------------------
 (3) _ReadByte                                             1     1      0      24
                                             22 COMRAM     1     1      0
 ---------------------------------------------------------------------------------
 Estimated maximum stack depth 3
 ---------------------------------------------------------------------------------
 (Depth) Function   	        Calls       Base Space   Used Autos Params    Refs
 ---------------------------------------------------------------------------------
 (4) _SerialRxPinInterrupt                                10    10      0    1898
                                             12 COMRAM    10    10      0
                        _LCDWriteStr
                               _exit
                          i2_LCDGoto
                       i2_LCDPutChar
                     i2_UARTReadByte
 ---------------------------------------------------------------------------------
 (5) i2_UARTReadByte                                       0     0      0       0
 ---------------------------------------------------------------------------------
 (5) i2_LCDGoto                                            6     5      1     469
                                              5 COMRAM     6     5      1
                          i2_WaitLCD
                        i2_WriteByte
 ---------------------------------------------------------------------------------
 (5) _exit                                                 2     0      2     349
                                             10 COMRAM     2     0      2
                              __Exit
                    ___funcs_on_exit
 ---------------------------------------------------------------------------------
 (6) ___funcs_on_exit                                      8     8      0      99
                                              2 COMRAM     8     8      0
                               _call *
 ---------------------------------------------------------------------------------
 (7) _call                                                 2     0      2      53
                                              0 COMRAM     2     0      2
 ---------------------------------------------------------------------------------
 (6) __Exit                                                2     0      2      76
                                              0 COMRAM     2     0      2
 ---------------------------------------------------------------------------------
 (5) _LCDWriteStr                                          5     3      2     775
                                              6 COMRAM     5     3      2
                       i2_LCDPutChar
 ---------------------------------------------------------------------------------
 (5) i2_LCDPutChar                                         1     1      0     305
                                              5 COMRAM     1     1      0
                          i2_WaitLCD
                        i2_WriteByte
 ---------------------------------------------------------------------------------
 (6) i2_WriteByte                                          2     1      1     236
                                              3 COMRAM     2     1      1
                      i2_WriteNibble
 ---------------------------------------------------------------------------------
 (7) i2_WriteNibble                                        3     2      1      96
                                              0 COMRAM     3     2      1
 ---------------------------------------------------------------------------------
 (6) i2_WaitLCD                                            1     1      0      47
                                              1 COMRAM     1     1      0
                         i2_ReadByte
 ---------------------------------------------------------------------------------
 (7) i2_ReadByte                                           1     1      0      24
                                              0 COMRAM     1     1      0
 ---------------------------------------------------------------------------------
 Estimated maximum stack depth 7
 ---------------------------------------------------------------------------------

 Call Graph Graphs:

 _main (ROOT)
   _LCDGoto
     _WaitLCD
       _ReadByte
     _WriteByte
       _WriteNibble
   _LCDInit
     _WaitLCD
       _ReadByte
     _WriteNibble
   _LCDPutChar
     _WaitLCD
       _ReadByte
     _WriteByte
       _WriteNibble
   _UARTInit
     ___lldiv
   _UARTReadByte
   _UARTWriteByte

 _SerialRxPinInterrupt (ROOT)
   _LCDWriteStr
     i2_LCDPutChar
       i2_WaitLCD
         i2_ReadByte
       i2_WriteByte
         i2_WriteNibble
   _exit
     __Exit
     ___funcs_on_exit
       _call *
   i2_LCDGoto
     i2_WaitLCD
       i2_ReadByte
     i2_WriteByte
       i2_WriteNibble
   i2_LCDPutChar
     i2_WaitLCD
       i2_ReadByte
     i2_WriteByte
       i2_WriteNibble
   i2_UARTReadByte

 Address spaces:
Name               Size   Autos  Total    Cost      Usage
BIGRAM             F37      0       0      37        0.0%
EEDATA             400      0       0       0        0.0%
BITBANK14          100      0       0      33        0.0%
BANK14             100      0       0      34        0.0%
BITBANK13          100      0       0      31        0.0%
BANK13             100      0       0      32        0.0%
BITBANK12          100      0       0      29        0.0%
BANK12             100      0       0      30        0.0%
BITBANK11          100      0       0      27        0.0%
BANK11             100      0       0      28        0.0%
BITBANK10          100      0       0      25        0.0%
BANK10             100      0       0      26        0.0%
BITBANK9           100      0       0      23        0.0%
BANK9              100      0       0      24        0.0%
BITBANK8           100      0       0      21        0.0%
BANK8              100      0       0      22        0.0%
BITBANK7           100      0       0      19        0.0%
BANK7              100      0       0      20        0.0%
BITBANK6           100      0       0      17        0.0%
BANK6              100      0       0      18        0.0%
BITBANK5           100      0       0      15        0.0%
BANK5              100      0       0      16        0.0%
BITBANK4           100      0       0      13        0.0%
BANK4              100      0       0      14        0.0%
BITBANK3           100      0       0      10        0.0%
BANK3              100      0       0      11        0.0%
BITBANK2           100      0       0       8        0.0%
BANK2              100      0       0       9        0.0%
BITBANK1           100      0       0       6        0.0%
BANK1              100      0      82       7       50.8%
BITBANK0            A0      0       0       4        0.0%
BANK0               A0      0       0       5        0.0%
BITCOMRAM           5E      0       0       0        0.0%
COMRAM              5E     2B      2F       1       50.0%
BITBANK15           38      0       0      35        0.0%
BANK15              38      0       0      36        0.0%
BITSFR_1             0      0       0     200        0.0%
SFR_1                0      0       0     200        0.0%
BITSFR               0      0       0     200        0.0%
SFR                  0      0       0     200        0.0%
STACK                0      0       0       2        0.0%
NULL                 0      0       0       0        0.0%
ABS                  0      0      B1      12        0.0%
DATA                 0      0      B1       3        0.0%
CODE                 0      0       0       0        0.0%


Microchip Technology PIC18 Macro Assembler V2.10 build 88905656 
Symbol Table                                                                                   Tue Mar 03 16:36:01 2020

                           l51 163C                    ?_LCDPutChar 0001                             l45 1380  
                           l54 167C                             l48 162A                   __CFG_CP0$OFF 000000  
                 __CFG_CP1$OFF 000000                   __CFG_CP2$OFF 000000                   __CFG_CP3$OFF 000000  
         __size_of_WriteNibble 004C                            l101 156C                            l112 160C  
                          l105 15D4                            l106 15D6                            l115 1116  
                          l131 164E                            l124 13EA                            l109 14F0  
                          l192 1298                            l185 1288                   __CFG_CPB$OFF 000000  
                          u130 1638                            u131 1634                            u320 15D4  
                          u400 13A4                            u321 15D0                            u401 13A0  
                          u410 13B8                            u330 121C                            u411 13B4  
                          u331 1218                            u308 14BE                            u340 123E  
                          u341 123A                            u350 1266                            u351 1262  
                          u290 14BC                   __CFG_CPD$OFF 000000                            u291 14B4  
                          u390 1394                            u391 1390                            u527 1490  
                          u537 1048                            u547 1062                            u557 1078  
                          u567 108A                            tosl 000FFD                            wreg 000FE8  
                   _TXSTA1bits 000FAC                    i2_WriteByte 160E                __end_of_LCDInit 1118  
                 __CFG_LVP$OFF 000000                __end_of_LCDGoto 13EC                   ?_LCDWriteStr 0007  
                         l1051 1638                           l1301 14CA                           l1053 167A  
                         l1311 14EA                           l1303 14CC                           l1313 14EC  
                         l1305 14CE                           l1401 1378                           l1049 162A  
                         l1315 14EE                           l1307 14D6                           l1331 15F6  
                         l1411 1394                           l1403 137A                           l1325 15BC  
                         l1309 14D8                           l1421 13E6                           l1413 13A8  
                         l1341 1230                           l1333 11F6                           l1405 137C  
                         l1327 15C0                           l1415 13B8                           l1351 1278  
                         l1343 123E                           l1335 1206                           l1407 137E  
                         l1281 1556                           l1273 153E                           l1329 15C6  
                         l1417 13CC                           l1409 1384                           l1441 1052  
                         l1353 1282                           l1345 1248                           l1337 121C  
                         l1521 147A                           l1291 1566                           l1283 1558  
                         l1275 154C                           l1419 13DC                           l1451 109A  
                         l1443 105C                           l1435 1640                           l1347 1266  
                         l1339 1224                           l1371 1316                           l1523 1480  
                         l1515 1456                           l1293 1568                           l1285 1560  
                         l1277 1552                           l1461 10C0                           l1453 109E  
                         l1445 1076                           l1437 1030                           l1349 1276  
                         l1381 132C                           l1373 131E                           l1525 1486  
                         l1517 1470                           l1295 156A                           l1287 1562  
                         l1279 1554                           l1471 10E6                           l1463 10CA  
                         l1455 10A8                           l1447 107E                           l1439 1042  
                         l1391 1336                           l1383 132E                           l1375 1326  
                         l1527 149C                           l1519 1474                           l1289 1564  
                         l1481 1112                           l1473 10F0                           l1465 10CE  
                         l1457 10B2                           l1449 1090                           l1393 1338  
                         l1385 1330                           l1377 1328                           l1299 14A8  
                         l1475 10FA                           l1467 10D8                           l1459 10B6  
                         l1395 1370                           l1387 1332                           l1379 132A  
                         l1477 10FE                           l1469 10E2                           l1397 1374  
                         l1389 1334                           l1479 1108                           l1399 1376  
                         STR_1 1012                           STR_2 1020                           STR_3 1001  
                         _LATD 000F8C                           _PEIE 007F96                           _RCIE 007CED  
                         _RCIF 007CF5                           i2l60 0074                           i2l54 1680  
                         _RCIP 007CFD                           i2l64 00A4                i2WriteByte@data 0004  
               i2_UARTReadByte 167E                           _call 1682         __size_ofi2_WriteNibble 004C  
                         _head 002E                           _main 1456                           _exit 1650  
                         fsr0h 000FEA                           _slot 002C                           indf0 000FEF  
                         fsr2h 000FDA                           fsr0l 000FE9                           fsr2l 000FD9  
                         btemp 0030                  __CFG_BORV$190 000000                           start 00D0  
                __CFG_IESO$OFF 000000                   ___param_bank 000000                __end_of_WaitLCD 15D8  
           __size_ofi2_LCDGoto 006A                   _BAUDCON1bits 000FB8                          ?_call 0001  
                        ?_main 0001                          ?_exit 000B                __end_of___lldiv 129A  
                        i2l101 159C                          i2l112 1626                          i2l105 15F0  
                        i2l106 15F2                          i2l131 1672                          i2l140 1314  
                        i2l124 1454                          i2l109 153C                          i2l836 1660  
                        i2l839 1674                          i2l864 1682                          i2l856 11F4  
                        _PORTD 000F83                  __CFG_WRT0$OFF 000000                  __CFG_WRT1$OFF 000000  
                __CFG_WRT2$OFF 000000                  __CFG_WRT3$OFF 000000                 __CFG_EBTR0$OFF 000000  
               __CFG_FCMEN$OFF 000000                 __CFG_EBTR1$OFF 000000                 __CFG_EBTR2$OFF 000000  
                        __Exit 1674                 __CFG_EBTR3$OFF 000000               __end_of_UARTInit 1382  
                __CFG_WRTB$OFF 000000                  __CFG_WRTC$OFF 000000                  __CFG_WRTD$OFF 000000  
               __CFG_EBTRB$OFF 000000                          call@p 0001               i2WriteNibble@cmd 0003  
           __CFG_MCLRE$EXTMCLR 000000         __end_ofi2_UARTReadByte 1682                          pclath 000FFA  
                        tablat 000FF5            __size_of_LCDPutChar 0012             __size_ofi2_WaitLCD 001C  
                  ?i2_ReadByte 0001                          ttemp5 0031                          ttemp6 0034  
                        ttemp7 0038                          status 000FD8                          wtemp8 0031  
               __CFG_HFOFST$ON 000000                  WaitLCD@status 0018                __initialization 159E  
                 __end_of_call 1684                   __end_of_main 14A6                   __end_of_exit 1662  
     __size_of___funcs_on_exit 00DE               __end_of_ReadByte 156E                  i2_WriteNibble 14F2  
                       ??_call 0003                         ??_main 0028                         ??_exit 000D  
                __activetblptr 000003                      ??_LCDInit 001A                      ??_LCDGoto 001D  
                       ?__Exit 0001                  LCDGoto@column 0021                ?i2_UARTReadByte 0001  
            __end_ofi2_LCDGoto 1456                         i2l1131 167E                         i2l1231 157C  
                       i2l1241 1590                         i2l1233 1582                         i2l1321 15E2  
                       i2l1251 159A                         i2l1243 1592                         i2l1235 1584  
                       i2l1323 1610                         i2l1245 1594                         i2l1237 1586  
                       i2l1229 156E                         i2l1317 15D8                         i2l1261 151A  
                       i2l1501 004E                         i2l1247 1596                         i2l1239 1588  
                       i2l1319 15DC                         i2l1271 153A                         i2l1263 1522  
                       i2l1255 14F4                         i2l1423 129A                         i2l1431 1650  
                       i2l1503 0058                         i2l1249 1598                         i2l1265 1524  
                       i2l1257 1516                         i2l1425 12A2                         i2l1361 11A0  
                       i2l1433 1654                         i2l1513 009C                         i2l1505 0064  
                       i2l1267 1536                         i2l1259 1518                         i2l1427 12D4  
                       i2l1363 11CA                         i2l1355 1118                         i2l1507 0082  
                       i2l1269 1538                         i2l1429 12D6                         i2l1365 11DA  
                       i2l1357 111C                         i2l1509 008C                         i2l1359 1180  
                       i2l1367 11E2                         i2l1369 1664                         i2l1491 1436  
                       i2l1483 13EE                         i2l1493 1446                         i2l1485 13FE  
               __CFG_WDTEN$OFF 000000                         i2l1495 1450                         i2l1487 1412  
                       i2l1489 1422                         i2l1497 0032                         i2l1499 0040  
                       _RCREG1 000FAE                         _RCSTA1 000FAB                         _SPBRG1 000FAF  
                       _TXREG1 000FAD                         _TXSTA1 000FAC                      ??_WaitLCD 0018  
               __CFG_XINST$OFF 000000                 __CFG_STVREN$ON 000000                      ??___lldiv 001F  
                ?i2_LCDPutChar 0001              i2WriteNibble@data 0001                 ?i2_WriteNibble 0001  
                       clear_0 15A4              __end_ofi2_WaitLCD 15F4            __size_ofi2_ReadByte 0030  
                 __mediumconst 0000                         tblptrh 000FF7                   LCDWriteStr@i 000B  
                       tblptrl 000FF6                         tblptru 000FF8           ___funcs_on_exit@func 0007  
         __size_of_LCDWriteStr 007C                     __accesstop 0060        __end_of__initialization 15B2  
              __CFG_PBADEN$OFF 000000             __size_of_WriteByte 001A                  ___rparam_used 000001  
__size_of_SerialRxPinInterrupt 00C8                 __pcstackCOMRAM 0001                 WriteNibble@cmd 0019  
                __end_of__Exit 167A                      ?_UARTInit 0024                 ??i2_LCDPutChar 0006  
                 ??_LCDPutChar 001C          __end_of_UARTWriteByte 163E              ??___funcs_on_exit 0003  
                      ??__Exit 0003                   ?i2_WriteByte 0004                     __pbssBANK1 0100  
                 WriteByte@cmd 001B                __CFG_PLLCFG$OFF 000000                      ?_ReadByte 0001  
           __end_of_LCDPutChar 1650                   i2LCDGoto@row 0006             __CFG_CCP2MX$PORTC1 000000  
                i2_LCDGoto$586 000A                ??i2_WriteNibble 0002                     ??_UARTInit 0026  
           __CFG_CCP3MX$PORTB5 000000                  ??_WriteNibble 0018              __end_of_WriteByte 160E  
                      _LCDInit 1030                        _LCDGoto 1382                        i2u31_40 15F0  
                      i2u31_41 15EC                        i2u42_40 12D0                        i2u50_40 0082  
                      i2u50_41 007E                        i2u42_47 12C6                        i2u27_40 1508  
                      i2u43_40 1304                        i2u27_41 1500                        i2u43_47 12FA  
                      i2u44_40 1314                        i2u44_41 1310                        i2u28_48 150A  
                      i2u37_40 11CA                        i2u36_48 118E                        i2u45_40 13FE  
                      i2u37_41 11C6                        i2u36_49 11A0                        i2u45_41 13FA  
                      i2u38_40 11F4                        i2u46_40 140E                        i2u38_41 11F0  
                      i2u46_41 140A                        i2u47_40 1422                        i2u47_41 141E  
                      i2u48_40 0040                        i2u48_41 003C                        i2u49_40 004E  
                      i2u49_41 004A                        _SPBRGH1 000FB0                  ?_UARTReadByte 0001  
                 ??i2_ReadByte 0001                     ??_ReadByte 0017              UARTWriteByte@data 0017  
              __CFG_PWRTEN$OFF 000000                        __Hparam 0000                        _WaitLCD 15BC  
                      __Lparam 0000                        ___lldiv 11F6                   __psmallconst 1000  
                      __pcinit 159E                        __ramtop 1000                        __ptext0 1456  
                      __ptext1 1628                        __ptext2 167A                        __ptext3 1316  
                      __ptext4 11F6                        __ptext5 163E                        __ptext6 1030  
                      __ptext7 1382                        __ptext8 15F4                        __ptext9 14A6  
                      _builtin 0100             __end_ofi2_ReadByte 159E            __end_of_WriteNibble 14F2  
             ??i2_UARTReadByte 0001                        fp__call 0000                 ??_UARTReadByte 0017  
                      main@tmp 002A           end_of_initialization 15B2           __end_ofi2_LCDPutChar 1674  
                    i2_LCDGoto 13EC                ___lldiv@divisor 001B              LCDWriteStr@string 0007  
              ___lldiv@counter 0023                        postdec2 000FDD                        postinc0 000FEE  
                      postinc2 000FDE               i2LCDPutChar@data 0006               __CFG_FOSC$INTIO7 000000  
                    i2_WaitLCD 15D8                      _TRISCbits 000F94                      _TRISDbits 000F95  
         __size_ofi2_WriteByte 001A                     LCDGoto@row 001C                 i2WriteByte@cmd 0005  
                   ?i2_LCDGoto 0006                WriteNibble@data 0017                ___funcs_on_exit 1118  
              i2WaitLCD@status 0002                    _WriteNibble 14A6              __size_of_UARTInit 006C  
 __end_of_SerialRxPinInterrupt 00D0            start_initialization 159E                     ?i2_WaitLCD 0001  
                ??_LCDWriteStr 0009              __size_of_ReadByte 0030                i2LCDGoto@column 0009  
         __end_of_UARTReadByte 167E            ___funcs_on_exit@arg 0009                       ?_LCDInit 0001  
                     ?_LCDGoto 001C                  WriteByte@data 001A                    __pbssCOMRAM 002C  
        __size_ofi2_LCDPutChar 0012                      _WriteByte 15F4                 LCDPutChar@data 001C  
       __size_of_UARTWriteByte 0016        __end_of___funcs_on_exit 11F6            __end_of_LCDWriteStr 1316  
                  ??i2_LCDGoto 0007                       ?_WaitLCD 0001                      __pintcode 0008  
                     ?___lldiv 0017          __end_ofi2_WriteNibble 153E                   i2_LCDPutChar 1662  
             __CFG_PRICLKEN$ON 000000                    __smallconst 1000                    ??i2_WaitLCD 0002  
               __size_of__Exit 0006                     ?_WriteByte 001A               i2ReadByte@status 0001  
                     _LATDbits 000F8C                       _PIE1bits 000F9D           _SerialRxPinInterrupt 0008  
                  _LCDGoto$586 001F                       _PIR1bits 000F9E               __CFG_WDTPS$32768 000000  
                     _UARTInit 1316                  _UARTWriteByte 1628               __size_of_LCDInit 00E8  
             __size_of_LCDGoto 006A                    _LCDWriteStr 129A                       _ReadByte 153E  
             ?___funcs_on_exit 0001          ?_SerialRxPinInterrupt 0001          __size_of_UARTReadByte 0004  
                     __Exit@ec 0001                       __Hrparam 0000                       __Lrparam 0000  
           __CFG_BOREN$SBORDIS 000000               __size_of_WaitLCD 001C              __CFG_P2BMX$PORTD2 000000  
                 ?_WriteNibble 0017               __size_of___lldiv 00A4                 ?_UARTWriteByte 0001  
                   _ANSELCbits 000F3A                  ??i2_WriteByte 0005                    ??_WriteByte 001B  
                     __ptext10 15BC                       __ptext11 153E                       __ptext20 1662  
                     __ptext21 160E                       __ptext13 167E                       __ptext22 14F2  
                     __ptext14 13EC                       __ptext23 15D8                       __ptext15 1650  
                     __ptext24 156E                       __ptext16 1118                       __ptext25 0000  
                     __ptext17 1682                       __ptext18 1674                       __ptext19 129A  
                 _UARTReadByte 167A                  __size_of_call 0002                  __size_of_main 0050  
      __size_ofi2_UARTReadByte 0004                  __size_of_exit 0012                 ReadByte@status 0017  
                     int$flags 0030                     _LCDPutChar 163E                       main@test 002B  
                     exit@code 000B                       intlevel2 0000         ??_SerialRxPinInterrupt 000D  
             ___lldiv@dividend 0017            __end_ofi2_WriteByte 1628                     _RCSTA1bits 000FAB  
              ??_UARTWriteByte 0017               ___lldiv@quotient 001F              __CFG_T3CMX$PORTC0 000000  
                   i2_ReadByte 156E               UARTInit@baudRate 0024  
